:020000040000FA
:200000000080002011000000131A0000131A000010B501F0FBFD01F005FD0000F7B572B660
:200020000122944B00211A7080229348120103F09CFA802200211201904803F096FA0022A7
:20004000FF2511008E4E3C368D4BD0584B000700284009184800013001333018AF43F31850
:2000600001900198834207D0581E0078C0190400187802332070F4E704323C2AE4D18149A4
:20008000814B88201960EE21804B0902196099217F4BC00319607F497F4B022519607F495B
:2000A0007F4B2026196099237E491B040B607E497E4C0B607E49802708607E497E480B60E0
:2000C0007E49FF05086080207D4940030B607D4908607D4928000B607C490B607C497D4B95
:2000E000196001237C490B607C490B607C490B789343283A13430B7016217A4A13780B43DE
:2001000013700622784B79491A60794A794B1A608B23794A1360794A1160794A1360794A23
:2001200074331360784A1360784A794B1A60794B794A1D60794B1A602522794B1A60794AE6
:20014000794B1A601522794B1A60794A794B1A603622794B1E60794B1A60794B2360794B08
:20016000236002F08BFD842321221B062360764B1A60764B183A1E60754B764E23600024FD
:20018000754B1A60754B09321A6002F04DFE744803F006F9302002F07BFD02F0F5FC714A6D
:2001A000714B72491A60724B3760724A1C60724B08201A60714A1460714A1A60714A1160D3
:2001C000714A72491A60724A1160BC21714A89011A60714A1160714A71491A608022920017
:2001E0000A607049196070490A6088216F4A89011A606F4A11606F4A6F491A6082226F4B67
:2002000012061A6080226E4BD2021A6047226D4B1A606D4B013A1A606C4B013A1A606C4B78
:20022000033A1A606B4B01321A606B4B01321A6002F050FC082002F06FFC684B37601D60B7
:200240008023674A1B0613600322664966480A606649086004206649086066490A60664AAF
:200260001360664B664A1360664A1360664B1C60F7BDC0461C700F4000300F4000400F4044
:20028000DC350000AA030000000002400003024000040240FF0F000000050240A80A0000CC
:2002A0000006024000500F4010500F4000202C4018500F4020500F40000055C328500F40C7
:2002C00040500F4048500F4050500F4070500F401E0E0E00200120402000104000800F4060
:2002E00001700F4000700F400000044040900400B1032400080004400001044008010440B1
:20030000180104400002044018020440B66DDB000803044000040440B16D070008040440D2
:20032000000504408E8D000008050440000604408E610000080604401806044008070440C8
:200340000C0000840800008424002C4048002C40010000840C020B4008202C40300010404B
:20036000001BB7000600008004010B4000BF5D000403014041FF008000000140000301402C
:2003800040FF00801C03014047FF008000BF12001803014046FF00801403014045FF00806A
:2003A0000803014042FF00800C03014043FF00801003014044FF0080ED2E000008010B4098
:2003C00000010B404C0101403C0101402C01014028010140100101400801014004210240EA
:2003E00000003040300030400140040080003040C00030403000314000003A4060004000CD
:2004000000033A4040033A40000E3F4010B5064C2378002B07D1054B002B02D0044800E0E7
:2004200000BF0123237010BD680100200000000094350000084B10B5002B03D00749084871
:2004400000E000BF07480368002B00D110BD064B002BFBD09847F9E7000000006C010020E7
:2004600094350000C80000200000000037B56B460F251B7829402B401C0030232343AB43D0
:200480000B4369460B7000234A7003228B7000F09BFD024AD3880133D3803EBD8401002091
:2004A00073B50E00040011001D0000286AD00389AB4205D2354A0325538A0133538262E053
:2004C000437F012B05D1314A0225938B0133938359E0072D14D80F236A462B4013706B4674
:2004E0002A00581C013503F037F8EAB26946300000F06AFD254A050093880133938043E03B
:200500000023458183812A00406803F025F86389072B37D96A460F2053701B0A034011784B
:200520001A00102301400B43834313436A4613706B4606226168981C03F00EF80822694668
:20054000300000F041FD002804D1A3890633A3810123A3730D4A0500138801331380002897
:2005600012D12082A074E07400F042FD606100F03FFD01236430A06125776377200000F033
:200580003BFD01E001256D42280076BD8401002010B513000A000168FFF782FF10BD0000DE
:2005A000F0B5931E85B004001500062B00D931E102A802F0D1FF082D06D0082202AB521BC0
:2005C0000021E81802F0D1FF02AB18780009032800D91FE102F0F4FE022B6DBF2700230067
:2005E00035373A783433012A06D1F9321A708A4A138A0133138201E000221A7002AB1E78B5
:20060000330700D106E13607013D360FAE4200D900E102AB3200591C606A02F09DFF7E4A0A
:20062000668593890133938102233B70F2E026002300353632783433012A06D1F932764918
:200640001A700A8A01320A8201E000221A70082D00D0DFE002AA157852782D072D0DAD1836
:20066000072D00D8D6E0228D6B4FAA4200D2BBE002AB991C0622606A02F06EFF0623A385F2
:20068000230001222E3365851A703B8920009B1832703B8100F0B0FC230012222F331A706B
:2006A00000212068FFF7E2FE00F0A2FC64302063B0E02300353301931B78012B07D0FA23B4
:2006C000554A34342370138A01331382A2E0270002AB2E371B783A781B071B0F9A4200D022
:2006E0008EE0A08D638D1B1A9BB21E1C072B00D90726B6B2013DAE4200D98BE0636A3200A2
:20070000181802AB591C02F027FFA38DF618A6853B780133DBB20F2B00D900233E4A3B7029
:2007200053890133538100F063FCA28D638D643020639A4203D30223019A13706AE02300EE
:200740002F3319780139C9B2002901D0197061E012221A7050E0637F012B5BD1022D59D0AD
:200760002D4DEB890133EB8100F042FC02AB1B7864301B071B0FDAB2A061012A0AD0002AE1
:2007800016D0022A46D1F632227763776B8A01336B823FE0E37C0133DBB2E374012B39D9AB
:2007A000F9232377F73B6377EB8A0133EB8231E002AB5B78002B05D1013B23822B8B013304
:2007C0002B8300E0238202AB9B781A000F32D2B2082A04D95AB2D243D217134000E00123D7
:2007E000A3740023E37415E0F8221A70002202217B8A327001337B822068FFF737FE09E016
:20080000FC23343423700023019A1370024A938A0133938205B0F0BD84010020F8B5050012
:2008200035351E002B780F00022B0DD1438D1C1C934200D9141C416AA2B2380002F08CFEDA
:2008400000203480287001E005204042F8BDF7B50400009308AB160004CB0F000192002151
:2008600038221D8802F081FE220000233532137063776B461B8827602381019B6660258574
:200880006362F7BD73B5437F0400012B65D1038A002B59D0837C002B03D16389072B06D8B4
:2008A00050E0456900F0A4FB2D1A4DD5F5E76A460F2512782A401100A27B2A4010002022C4
:2008C0000A436946AA4302430A70A1895B1A9BB21D1C072B00D907256368ADB259186B46C8
:2008E0002A00581C02F038FE6A1CD2B26946206800F06AFB00280AD1A389ED18A37BA58124
:200900000133DBB20F2B01D8A37300E0A073224A538801335380002814D1238A1F4A9342B4
:2009200001D0013B238200F063FB6430A06100F05FFBA37CA2891818638960619A4203D3FF
:20094000002300E002236377A56900F051FB2D1A03D5FE232377FC3B6377250035352B782E
:20096000012B0ED1266B00F043FB361A09D52300FD2234331A700023074A2B70538B01332B
:200980005383637F012B02D02B78012B02D1200000F032FB73BDC04684010020FFFF0000E9
:2009A00010B50400094B40220021186002F0DDFD074B636301236376023B23846362054B45
:2009C0002380FA231B01638010BDC046A40100200000000030750000F7B501937F2345787C
:2009E000060014001D40032D0AD004D8012D15D0022D05D00AE0042D02D0602D0ED005E046
:200A0000164B1F6800F0C0FCF86107E033787F22637012232270A3700F3B1CE00F4B1968E8
:200A20004D7673787F2B18D84022337813432370737863700A881302120A1A4393B2A37042
:200A40001B0AE3704A881302120A1A4393B223711B0A63710623019A1380F7BDA40100201C
:200A6000F0B5477880213C008C43012C09D0032C15D001787F20517012211070917003229A
:200A800017E00D490E784C782402344325008C78C97824042C4309062143084C61607FB268
:200AA000002F07DB40240178214311704178517002221A80F0BDC04698350000C0000020CB
:200AC000017840200143117001221A80704701787F20517012211070917003221A80704701
:200AE000094910B5096844780C7184784C7141787F2907D840240178214311704178517000
:200B000002221A8010BDC046A4010020F7B5264901930C684578210028310D708578FF2686
:200B20004D700579C77841792D023D43090429430D0081793602090629430D060F0E2F43FD
:200B40000D0A35402F43FF2509022D0429403943E162077AC1793F023943477A3F040F4341
:200B6000817A090639430F0EBC4663460F061F430B0A1E4009023E430D4035432100256343
:200B800001253C310D700021A1633E3421700178402001431170202151701E399570D170E0
:200BA0000422019B1A80F7BDA4010020017840200143117001221A8070477F2110B544782D
:200BC000214009D164B2002C08DB40240078517020431070022200E000221A8010BD0000A8
:200BE000F8B51E004378050014001800802290430138032847D802F0E3FB4E4E022A5BB2A1
:200C0000002B48DB244B07221968A01C063102F0A3FCE278A17812020A431302120A1A4387
:200C200093B2627921791202A3700A431B0AE3701302120A1A4393B2402223711B0A63714C
:200C40002B78134323706B786370092322E05BB2002B20DB104B07221F68A91CB81D02F05A
:200C60007BFCFB881A021B0A1343FB803B891A021B0A134340223B812B78134323706B7880
:200C80006370022306E02B787F22637012232270A3700F3B3380F8BDA401002030B544786D
:200CA000802125008D43291E04D0022D0AD94139012907D901787F20517012211070917060
:200CC000032209E064B2002C07DB40240178214311704178517002221A8030BD30B5802472
:200CE0004178A14302290BD0032913D0012911D001787F205170122110709170032213E092
:200D00000A490D6881780C04C1780902214304792143696141787F2907D84024017821432E
:200D200011704178517002221A8030BDA401002010B57F2450701470917003221A8010BD0F
:200D400007B50200094B0A48C2500A4B0200C15081235B000193084B3832C3180093074BA5
:200D6000FFF775FD00F0AEFC07BDC046480A0000A80100204C0A00003E04000006040000EA
:200D800050220948094B10B5C254094B4E3AC254084A094BC252094A094BC252034B062284
:200DA000C118FFF7F5FB10BDA8010020420600004306000075300000440600000FA0FFFFB1
:200DC0004606000010B50248FFF75CFD10BDC046A8010020F7B56B469D1D0023754C0100D1
:200DE000082220002B80FFF7DBFB2000FFF74AFDA8238122DB00E61801AF3B005200310020
:200E00002000FFF70BFD002800D0D2E0A8232880DB00E05C39882E2870D01ED8192866D0BC
:200E20000ED8112840D0142800D183E0102800D087E0614B3000E2182B00FFF7CDFD86E07D
:200E4000272838D028283DD022287AD15A4B3000E2182B0000F00CFD79E0372863D00CD887
:200E6000342852D0362857D031286AD1524B3000E2182B0000F0A8FC69E0832829D008D888
:200E80003E285ED14C4B3000E2182B00FFF795FE5DE0852824D0872853D1474B3000E218DB
:200EA0002B00FFF71BFF52E0434B3000E2182B00FFF7D6FD4BE0404B3000E2182B0000F01E
:200EC0002BFC44E03C4B3000E2182B00FFF708FE3DE0394B3000E2182B00FFF781FE36E06E
:200EE000354B3000E2182B00FFF7D8FE2FE0324B3000E2182B00FFF7EAFD28E02E4B3000E2
:200F0000E2182B0000F084FD21E02B4B3000E2182B00FFF7FBFD1AE0274B3000E2182B00C0
:200F200000F00AFD13E0244B3000E2182B00FFF73DFE0CE0204B3000E2182B00FFF7C0FD73
:200F400005E01D4B1121E2182B00FFF7F1FE2A88002A2ED0184B2000E118FFF719FB174E43
:200F6000174D6F6830787278B378120202431B0413431A00F3781B0613439F4219D100F0F4
:200F800003FA0600637F012B02D1FFF71BFFF9E7230035331B78012BF7D000236B6000F08E
:200FA000F3F9084B801B9842F9D980232B6001F0C9FDF7BDA8010020420600009835000034
:200FC000C0000020CF07000010B5002908D0002A06D0054B0548C05800F016FB002001E0DE
:200FE0000120404210BDC046480A0000A801002010B500F0C9F910BD704700001FB5041E6F
:2010000040D003780520022B03D00338032B00D0093001F001F9002834D163681B4A1360F3
:201020006A46247B10702822029001920390002C0AD0174A040093420ED80422DB00013483
:2010400013430294039307E0124A934204D80124114A5B0502920393684601F065F90028EB
:2010600001D0002402E00120002C0CD16B461C7028230193084B68460293AB235B050393F9
:2010800001F052F9002004B010BDC046CC000020FFFFBF1FEF070000F9FF1F0010B501F0E2
:2010A00049FA10BD10B501F075F810BDF0B58BB00690029109920393002900D1A2E00A244C
:2010C0000126039B5C43524B1D68524B1A6804933240019204D16B050893102500921BE02D
:2010E000039B002BF1D0013C012024B201F036FD631CEAD186E0039B002B04D0012001F0BF
:201100002DFD013C24B2049B1B68DB0769D4009B5D19ABB200250093009B029A934267D2E6
:20112000631C6FD0029B009A9D1A082D00D90825EBB20793089A384B1A60082D05D0FF23C6
:201140002A041B041A40059202E080231B0305930022324E079BD7B2BB4229D9D300032F45
:2011600011D906995B420800009938338C466044815C376899408C46FF21994063468F432C
:201180001F43376012E026495B420F6806991833080000998C466044815C99408C46FF2138
:2011A000994063468F431F431D4B1F600132D1E701F0ACF806001D2001F0B8FC059A194B27
:2011C0001D201343049A13600123049A136001F0A3FC01F09BF886428DD0002001F06EFA84
:2011E00010E001F099F8002891D1631CF1D18EE7631C07D06A46099B12891A8001F08CF8E9
:20120000054301D01023019301980BB0F0BDC046CC00002020002F4024002F402C002F403E
:2012200028002F4008008000F0B51600002487B005000F000822434904A8039302F08CF9F6
:201240003480A74201D100207AE00A23039A21005A43280001923A0002F087F900233A4A0F
:2012600002931370384F3B78002B4AD101F054F884B2012863D801213B785A019C46334B6F
:20128000D21813680B4237D0314B32491B6809685B0D8B4206D0122B06D0012113680B43A1
:2012A000136029E0122B03D1029B0133DBB202930F239078184001003388002908D0013925
:2012C00089B204AC645C1419277A6C18E754F3E701241168C31821439BB2116033806C88BA
:2012E000E21D92B2934207D12A78012A04D1EB18013B1B78172BA6D06346134A0133137015
:20130000B0E7039B002BA9D0029B002BA6D1012001F024FC019B013B1BB2019301339DD1A8
:2013200007343388A4B21020A34209D12A78012A06D1ED18013D2B78172B01D183E7112039
:2013400007B0F0BD9D350000F80B0020A0002F40A4002F40CC00002010B5034A1368013365
:20136000136000F0DFFE10BDFC0B002010B500F0D1FE00F001FF034800F004F900F018F98C
:20138000FEE7C046D0000020014B18687047C046FC0B002070B586B062B6012001F0C2F982
:2013A000012001F0B3F901F013FA454800F09EFE444800F097FB01F0BDF8434C434D012262
:2013C0002B002100002001F0FBFE211D2B000422012001F0F5FE21002B0008310422052053
:2013E00001F0EEFE21002B000C310122092001F0E7FE21002B000E3102220A2001F0E0FEBD
:201400002378002B00D1023323706368002B00D12F4B6360E2892F4B9A4200D9E38120004B
:20142000FFF7ECFD002805D102232370284B636001232373082602AD10220021280002F0DD
:2014400094F832000021684602F08FF8224B23490293012368466B71AE7102F08EF8237838
:2014600062689901237B28005B010B43110E0B4369460B71130C4B71130A8B71CA71E96088
:2014800001F09EF8164C174D6E6820786278A378120202431B0413431A00E3781B061343E2
:2014A0009E4202D100236B6004E0002000F0CCFB002801D0FFF75AFF00F0E4FDFEE7C046CC
:2014C00000BF030059130000D0000020380E0020F9FEFF1C1027000007B00000A5350000AE
:2014E000AA350000C0000020034B10B55B68002B00D0984710BDC046FC0B0020034B10B570
:201500009B68002B00D0984710BDC046FC0B002070B5114B04000D00D8896421160001F075
:2015200063FF83B2002B01D1002013E0DBB2320029002000FFF778FE00280BD1074B1A7BA5
:20154000002AF1D1064A5A60064A9A60064A1A6101221A7370BDC046D0000020FC0B002086
:201560009D100000A5100000AD10000010B5044C2469002C01D0A04701E00120404210BD75
:20158000FC0B002070B5094C0200230062CA62C312681A6041688068FFF7D2FB2000442266
:2015A0000021103001F0E1FF012070BD100C0020F8B5FFF7E5FB0327124C250023002600F6
:2015C0005135503328781A782B78C0B210369A4204D000012318DB69002B02D1FFF7F2FB64
:2015E000EAE73018FFF7F6FB00212878082200012418E161301801F0B8FF2B7801333B403F
:201600002B70EBE7100C002030B51400050087B0684601F0A1FF02A8074B847102951B7B8F
:201620006A4643710023C260C3710371037200F0C7FF07B030BDC046100C0020F7B51C4937
:201640000A680B681203120FD5B24C68DB0201D4640D00E0E4080020164EC3B29D420FD985
:20166000C700032B03D97F423368383702E07F428B681837FB406F46DBB2C3550130ECE750
:201680000D4B1E001F0050363178103708011B18D96900290AD1DC611D763818694601F0FD
:2016A0005BFF03223378013313403370F7BDC046A0002F40AC002F40100C002003BA08BA37
:2016C0001900704770B50F4C08252000FFF768F920002A000C49583001F03EFF20002A0077
:2016E0000A49503001F038FF20002A000849603001F032FF200011220649683001F02CFF4C
:2017000070BDC046680C0020AF350000B8350000C1350000CA350000F8B5040015001E0058
:20172000FFF732FE8022637801009343052B20D0062B34D1E378A17820791B020B4300045D
:201740001A0003006079134300061843E379A779217A1B023B4309041A000B00617A1343C7
:2017600009061943FFF7AAFF164B9864D96400231CE0C043134B18645964FFF79FFF020A6C
:20178000EA70020C2A710A0AA870A971000EEA710A0C090E68712A726972092306E0207870
:2017A00033002A001221FFF7C3FA0AE062787F2A07D84021227801330A432A7062786A70D0
:2017C0003380F8BD680C002070B5C478857824022C4380252102240A0C43A1B24478AC43D7
:2017E000012C2AD1FF242402A14208D01E4CA1420FD08024A400A14222D0122119E01B49E4
:2018000005790C003D342570012464420C844C6216E04479057924022C43BD252102240A36
:201820000C43A1B2114C6D006153248C8C4207D013213120FFF77CFA14E000781221F9E7C3
:2018400041787F290ED8402401782143117041785170C1788478090221439170090AD1700C
:2018600004221A8070BDC04601FF0000680C002070B514008278417812020A431D00130262
:20188000120A1A4393B2264A060093421DD00BD8A0229200934215D0224A93422AD12249BA
:2018A000E01C0822503114E0204A93421DD0204A934212D01F4A93421CD11B49E01C08228B
:2018C000603106E0184B1B7E11E008221649E01C583101F041FE082313E01349E01C1122BD
:2018E000683101F039FE11230BE00F4B5B7EE370012306E02B00220012213120FFF718FA9F
:201900000CE04021327803330A432270B278717812020A436270120AA2702B8070BDC04669
:2019200081F1000080F10000680C002086F1000090F1000082F10000F0B51E00304B150072
:201940001A0007003C3210787A7885B01C00904203D033002A0073213BE09A6B1B6B01925E
:201960009A4203D333002A00312132E0BA1C944602398AB2238C0292624661460298511A36
:20198000884213D90820117809024B4019B25B0003936B469B89002903DA1A4B0399594019
:2019A0008BB201380028F1D10132E6E7144A1384D06A019B1818144BC218144B9A420CD973
:2019C000000A614600F012FF002806D033002A0072213620FFF7ACF910E0A26B029B944602
:2019E00040226344A3633C342378013323703B7813432B707B786B700223338005B0F0BD5A
:201A0000680C0020211000000041FCFFFF3F0000704710B501F074FD03680C2B00D1FEE751
:201A2000FEE70000F8B500250F49104B01394A1C14D000221F685C689E68A018B24203D0C6
:201A4000B858A0500432F8E70200DE68141AA64201D020C2FAE710330139E8E701F056FDEF
:201A6000FFF798FCFEE7C046010000002839000001210F4A70B5136814008B4313600023FC
:201A80000C4D0D4E0D489A002900032B00D8B15801338150302BF6D1FEF7C0FA084B1A68C0
:201AA000002A00D11A60012223681343236070BD00001040131A0000000000000000002060
:201AC000C000002010B5040001F073FCC021044AA40113688B431C43146001F06EFC10BDE5
:201AE00000E400E010B50124044B1C60044B18640320FFF7E7FF034B1C6010BD80E100E0CB
:201B00000000002000E100E0004700000A00F0B50C4B8C1A075D08241D0001267D405B08FD
:201B2000354202D0084D6B409BB2013CE4B27F08002CF1D1013A92B2002AEAD1D84340BA4E
:201B400080B2F0BDFFFF00000884FFFF00234118002A05D0013A881800781B18DBB2F7E7B2
:201B600018007047013810B50B2830D80902494201F026FC06080A0C0E10141216191B20E2
:201B8000164B13E0164B16E0164B0AE0164B12E0164B0BE0164B09E0164B02E0164B00E0E2
:201BA000164BC91814E0164B05E0164BC9180878C0B211E0144BC9180A7848788C780002FC
:201BC000230418430300C8781343000603E000210B7848780002184310BDC046C0FF0300AB
:201BE000C1FF0300C5FF0300C9FF0300D0FF0300D1FF0300D6FF0300D2FF0300D4FF030069
:201C0000D8FF0300DCFF0300E0FF03000C4B10B51A68102313400B4A00D113601368802B47
:201C20000DD10024022021001460FFF79BFFA04205D021000220FFF795FFFFF765FF10BDB0
:201C400000030B40C0000020F8B5010006000320FFF788FF040031000420FFF783FF0134FC
:201C600024022718002431000320FFF77BFF250001300002B84209D203785A1ED2B2FD2A4C
:201C800000D80125E418E4B20130F3E731000120FFF768FF6442E4B20623844203D16A424F
:201CA00055416D422B401800F8BD0000F0B5C44CA5440190FFF718FC62B6019B002B02D0BD
:201CC0006B461B7901E0BF4B1B78DBB2039300250A23009502939621039B04AA49000AA8A4
:201CE000FFF716FC019B002B03D0029B013BDBB20293029B002B02D00028ECD102E00028BE
:201D000000D07EE004AB1988062900D88AE11A7E0423012A4ED104AA568BF21D8A4200D987
:201D20004CE1962149008A4200D947E10AAA92199279172A3ED10020F11889B2814202D0F6
:201D40000AA8FFF7E3FE0AAFBB195A791B7912021A43082382422DD15EE0342B00D0CDE08E
:201D6000009B012B00D05DE1032E00D05AE180220021520055A8802501F0F7FB6D001F210B
:201D800055AB581904ABC918F21E01F0E5FB0423AD19FF33ADB29D4200D009E104AB9D7F7F
:201DA000587F894B2D0205439D4200D81CE101230093093300240121002004AA54800AAABE
:201DC0001170211D537089B2230A9470D370814202D01000FFF79AFEA0AB7C4A1B199A18A8
:201DE00010707B4A000A9A1810707A4A07349B1817221A7004AAA1B2962302320AA8FFF757
:201E0000B5FB019B002B00D165E7009B012B00D030E1012300935EE77B783C791800313861
:201E20000A282ED96C4A1468002C26D0009A012A25D104AAD68007AE13710BAF0C22002114
:201E40003000069701F091FBB760310005A8A0472623B488FF339C4202D9B368BB4207D0FD
:201E6000B268002A01D1002C04D13368DBB2A2E70E239FE70E2314009DE705239BE7052348
:201E800098E701F0A7FA0B001B00CFFF6AFF4300CFFF48005B006AFF78008800009B012BF0
:201EA00000D0BFE0002E00D0BCE03000FFF7CCFE43424341009C3B7133007CE7009B012B7B
:201EC00000D0AFE0012E00D0ACE0002C00D0A9E0424B1B681B689A0CD2B2002A02D19B033B
:201EE0009B0D01E08023DB003B711B0A7B71FF23BB71FC3BFB71042400235CE7009B012BD8
:201F000000D08FE0022E00D88CE038E7009B012B00D087E0A8E0009B012B00D082E02C3311
:201F20007419FF339C4249DC55AB581932000BA901F012FB0023A5B21C003CE7062E71D15B
:201F4000274A07AB94461000190014C814C16246013EF6B29019B919007A0979884261D1A8
:201F6000002EF5D10BAA03CB03C2012335000093082433001FE7009B012B53D1032E51D196
:201F800004AA04AB977F5B7F3F021F430E4B9F424AD90A230EE70020FFF756FE002802D16D
:201FA0008022104B1A60FFF7A9FA00F0CBFD39E001230025009302332C00FCE60323F9E61C
:201FC0007CFDFFFF60370000FF030000ACFDFFFFADFDFFFFAEFDFFFFE80D0020E0000020E4
:201FE00064370000C0000020244B1B681A68130AD2B29BB2002A01D001339BB2A0022D18A1
:20200000A8B2834204D90123002500930933D3E755A900F0EBFB0028F5D101230500009374
:202020000300C9E70423C5E68022A102C919090252000020FFF78AFD0600002C0ED1104B8E
:202040009F420BD121000520FFF78CFD2100361A0620FFF787FDF6B2361AF6B20AAB7642E0
:202060001E7101240023A6E60025019BAB4200D0CFE630E6A1239B009D44F0BDE0000020C7
:20208000FF03000070B50020FFF7DEFD431E98410625144C4042236805401A68C021C03AB4
:2020A0000020FFF753FD63681B78181AC0B2834203D123681B68002B02D1002000F040FDC6
:2020C000094C2368402B01D0002D03D000202060FFF7ECFD0520FFF7E9FD8023236000F04E
:2020E00031FD70BDE0000020C00000201FB500236A46537280235B010093012303900449A3
:2021000068461372019301F009F805B000BDC046380E00208023024A11780B431370704728
:2021200075000F400823044904480A781A4201D00268FAE77047C04667000F4010210F402A
:2021400010B50124084B1C60084B1C6001F031F91021074A13780B43137001F02EF9FFF7F0
:20216000E1FF044B1C7010BD90200F4010200F4097000F4087000F4010B5054C2378002BC1
:2021800003D1FFF7DDFF01232370FFF7C3FF10BDEC0D002001220A4B10B519689143196039
:2021A000F021C9011C68144004D001390029F9D1012003E01D2000F0B9FC200010BDC04692
:2021C00010002F400120034B1A6802431A601B689843704704002F400C4A0D4B10B51A605B
:2021E000FFF7F0FF1D2000F097FC0122094B196811431960902109011868104204D10139D9
:202200000029F9D1012000E0002010BD0110000000002F4010002F4002B20223002A0DDBF3
:20222000074A084B116800040B40034313601368054A13401B1A581E8341DBB21800704791
:2022400014002F40FFFF00800000FF7FF0B50600023802240D2833D8881E052803D9002BDA
:202260002ED101292CD10224032A29D8964227D3914225D3134DEE3428682F68000A204034
:202280003043F026104C00023C4004432C602C68360160400124304212D1581E8341A34006
:2022A000490192002E680A43ED341343DBB2A6431E432E6028680440E31A5C1EA341DCB2C6
:2022C0002000F0BD14002F40FFF0FFFF084B10211A68002805D18A431A601868C006C00F61
:2022E00005E001200A431A601B681B099843704714002F40044B18601B689BB2181A431E2B
:202300009841C0B27047C04604002F40014B1868C0B270470C002F40024B18688003800FF3
:202320007047C0460C002F4010B503781E4A5B019B1841681D4A0A431A6003781A4A5B019C
:202340009B1819681A4A446811401A4A2240914201D0012027E082681A610378124A5B01BE
:202360009B181A6981688A42F3D1C2685A6103780D4A5B019B185A69C1688A42E9D1012253
:2023800052429A610378084A5B019B189A690132DFD10022DA610378034A5B019B18D86977
:2023A000431E9841C0B210BDA0002F40800080007F007F007FFF7FFF030010B50278104900
:2023C0001201521840680F49014311601A780C491201521814680C4958680C400B490140F5
:2023E00001208C420BD1996851601A780449120152189B685068181A431E9841C0B210BD9E
:2024000020002F4008008000F7007F00F7FF7FFF70B500260B4DA819FFF7CEFF002801D09B
:2024200001200EE00C36602EF4D10400A036280060300019FFF778FF0028F1D11034B442BC
:20244000F5D170BD743700008022314B120670B51A6001222F4B196891431960F021C901C3
:2024600018682C4E0125104203D001390029F7D14CE01D2000F05AFB274C28491D2000F02D
:2024800029FB03211D2000F02DFB2268244B1340B0221203134323602168224B0B4093427D
:2024A00034D12268204B134023602368DB042DD422681E4B13402360802322689B011340FC
:2024C00024D12A0029000C20FFF7C0FE00281DD12800FFF7FBFE002818D12368AB4323609A
:2024E00023682B4212D1FFF793FF00280ED11048FFF700FF002809D13368073083433360F8
:2025000033681840431E9841C0B200E0012070BD00042F4010002F4014002F40AD250000A7
:20252000FFFF00800000FF7FFFEFFFFFFFDFFFFF0110000010B5074B1A781C00002A04D003
:2025400001232370FFF748FE03E0FFF77DFF0028F6D010BDED0D0020F8B5012480220025C5
:20256000202627000E4B52011A600E4BE8B21B6823420ED00C4BEB185B011B68334208D089
:202580003C4204D0002804D100F0B4F801E000F0A3F864000135A4B2102DE6D1F8BDC04645
:2025A00000002F4008002F4005780102034B10B51B68DB0401D5FFF7CFFF10BD00002F406A
:2025C0000323F7B5060000930127384D384B01201A683B041A4259D134797179621E94410C
:2025E00033686205002901D15B0503E0802149030A43DB006B60B479072C01D8240401E079
:2026000080242403F3791443002B01D004231C43290000220C310191B379D0B2834221D923
:20262000082A1FD0D30003280ED901995B420868FF21383399408843F168895C99400B009C
:20264000019903430B600BE0FF215B4218339940A8688843F168895C99400B000343AB6015
:202660000132D9E71D2000F061FA124B1C432C60337A002B02D02B68032201E001222B689E
:2026800013431D202B6000F047FA00207F00FFB200280AD0084B10359D4297D1009B013BE3
:2026A000DBB20093002B8FD10120FEBD20002F4008002F4008008000A0002F40072808D8E7
:2026C0000322044B0001C01803689343013A13430360704720002F400122054B4001C018A6
:2026E0000368134202D00368134303607047C046A0002F4010B5FEF7A1FF0121024A136815
:202700000B43136010BDC046A0002F40012304490A689A43D2B2034013430B607047C04611
:20272000000704400223044940000A689A43D2B2034013430B607047000704408022002100
:202740000C4BD2041A601A681A600B4A11601A681A600C22094B1A60094B0B3A1A60094BB1
:2027600030321A60084B33321A60084B323A1A607047C04600022040080220402402204003
:202780003802204028022040140220400C02204070B50D000400AC4000F00BFE024B1C604D
:2027A00000F00BFE70BDC0460800204010B5102400F0FFFD054A13682343136000F0FDFD13
:2027C00018212000FFF7E4FF10BDC0460000204010B5054C2378002B03D1FFF7AFFF01231C
:2027E0002370FFF7E3FF10BDEE0D00200023F0B5C7B0029303932C4B050098424FD8002976
:202800004DD0802206A8520000F0A6FE274B9D4201D8274B00E0274BFF220493264C2749DD
:20282000274B04AE726026600B60C046236801911B0F0F2B04D021680023090F0A2901D08E
:20284000236813400293029F002F2AD100F0B1FD0397029B002B16D11A4A2D040492049A8A
:20286000194915430495019D2660134A2960C0462168090F0F2903D01168090F0A2901D0B4
:202880001368DBB20293039B002B05D10393039B002B01D0039B029300F08FFD01E0042315
:2028A0000293029847B0F0BDFF030000FF010000B6D70000B6D7000108001040040010407C
:2028C00004000080B6D800000500008010B5040000F06FFD102C04D803210C4A13688B4361
:2028E0000FE0202C05D80321084A13688B43023906E0302C06D80321044A13688B430139B1
:202900000B43136000F059FD10BDC0463000104000233F2030B50C490C4C0A681D5D02401B
:20292000AA4201D1033303E001332E2BF5D12B3B0749084A086802400A60074A9B181B78B2
:20294000064ADBB2136030BD2CFF0B40D438000000002240FFFFFFBF4DF3FF0F28FF0B40DA
:20296000024B18684000C00F7047C046000022400121284AF0B513683F258B431360264A93
:20298000264B1168264C19602649274E08685860002320689F5D2840B84201D1033303E062
:2029A00001332E2BF5D12B3B204804781B2C0FD8302B01D11E4B02E0182B04D11D4B1B78C1
:2029C0001D4CDBB223601F241368A343173C0FE0302B01D1194B02E0182B04D1184B1B7817
:2029E000154CDBB223601F25164C13682478AB43234313600378272B01D8134B00E0134BA0
:202A00001B78134ADBB20B60022113680B431360F0BDC04650000C4034FF0B40F00D002085
:202A20002CFF0B4020FF0B40D438000002F3FF0F3FF3FF0F3EF3FF0F28FF0B40C3F1FF0FF4
:202A4000C2F1FF0FC0F1FF0F42F3FF0FC1F1FF0F24002C4000233F2030B51249124C0A68D1
:202A60001D5D0240AA4201D1DA1C03E001332E2BF5D1032202201F250C490D4C0B6883433E
:202A80000C480B6023680168AB4329400B4323604168094B1960094BD3181B78084ADBB234
:202AA000136030BD2CFF0B40D438000024002C4034FF0B40F00D002020FF0B404DF3FF0F51
:202AC00028FF0B40024B18688007C00F7047C04624002C40024B8000C318186819607047BC
:202AE00040000020F8B5032605003540B5400F0004000635AE40AF4000F05BFCA408054BC3
:202B0000A400E4182368B3431F43276000F055FCF8BDC04600E400E01F2318401E3B834035
:202B2000014A13607047C04600E100E01F2318401E3B8340014A13607047C04680E100E0E7
:202B400001BE7047034A044913689BB20B4313607047C0460CED00E00400FA0570B5802579
:202B600004002D02064BAC4205D9586800F018FC044BE418F6E79868604300F011FC70BD4C
:202B8000E80000200080FFFFF0B585B000F058F900285AD000F00DFC01212D4A01901368A4
:202BA0003F200B43136000232A492B4C0A681D5D0240AA4201D1033303E001332E2BF5D190
:202BC0002B3B00211F20254A116025490A68024204D10A688243133802430A60214C224A4C
:202BE0002168224E1140A02252031143204A302053438022D2019B18DB0B013B0B432360B5
:202C0000336800250393FFF761FE8021194AC90513680B4313602268174B1A40170001207D
:202C20001035FFF79BFFAB053B432360F02DF6D10120FFF793FFFF230A4A9B053B4313607A
:202C4000039B0198336000F0B8FB05B0F0BDC04650000C402CFF0B40D438000028FF0B400F
:202C600034FF0B400800224000F800C03000104040420F0000002240FFFF3FC010B5034B31
:202C80001B7B584300F08CFB10BDC046E8000020F0B587B0050000F08CFB0590FFF760FE70
:202CA00000230293984203D0FFF732FE01230293FFF708FF00230393984207D0182D01D053
:202CC000302D03D1FFF7C6FE01230393EB1E04932D2B5AD8344B1B789D4204D8334B1C7846
:202CE000334BE4B21EE0334B1B789D4204D8324B1C78324BE4B215E0314B1B789D4204D813
:202D0000304B1C78304BE4B20CE0304B1B789D4204D82F4B1C782F4BE4B203E02E4B1C78D0
:202D20002E4BE4B21B78EA1EDBB200932C4B2D4E9B5C01932F2B04D92A2D02D9192737600C
:202D400008E03F2337681F40019BBB4205D2254B019A1A60052000F023FB204B224AED1827
:202D60002B780520DBB21360204B009A1C60204B1A60FFF783FF019BBB4206D9049A184B34
:202D800005209B5C336000F00BFB029B012B01D1FFF7FAFE039B012B01D1FFF7E9FD0598F0
:202DA00000F00BFB07B0F0BD40F3FF0F41F3FF0F42F3FF0F43F3FF0F44F3FF0F45F3FF0F24
:202DC00046F3FF0F47F3FF0F48F3FF0F49F3FF0F4AF3FF0F4BF3FF0F4CF3FF0F4DF3FF0F9F
:202DE000D43800002CFF0B4028FF0B401CFF0B4020FF0B4001200A4A1368834313600223C1
:202E000011689943116007492E330A689A43203B1A430A6007220B68934303430B607047F0
:202E200000002240000F224010B5FFF7E3FF8021024A090613680B43136010BD00002240BB
:202E4000014B1868C00F70470000224010B500F0B0FAC021034A090213680B43136000F0FA
:202E6000ACFA10BD00010B4010B5802400F0A1FA0749084B0A68E4011A4022430A600A680A
:202E800013408022120213430B6000F096FA10BD00010B40FF3FFFFF70B5050000F089FAF6
:202EA0000E4B04001A68C0231B02134011D10C480C49054028000E680B4A324010430860F0
:202EC0000A68012B01D1FFF7C1FF200000F075FA70BDFFF7C9FF0123E9E7C04600010B401C
:202EE0000404040010020B40FBFBFBFF042270B5224C2368134213D021494B6813420CD0AF
:202F0000204B5D6A48681540A8434860596A914359629B69002B00D098470420FFF7BCFFE2
:202F200080232268DB001A4215D015494A681A420DD0144A556A48682B4098434860516A89
:202F4000114B0B405362D369002B00D098478020C000FFF7A1FF80232268DB021A420CD0C7
:202F6000074A52681A4204D0064B1B6A002B00D098478020C002FFF78FFF70BD10020B40F6
:202F8000FC000020100E0020FFFBFFFF002270B515008B6903600C694E687443A2420AD28A
:202FA0001C68002C03D0A54201D2250003600133FF330132EFE770BD30B5002803D00C685C
:202FC0000134FF340C600C681D68AC4201D39C690C60002414605C68A04211D318690D68D9
:202FE00001280CD99B6921026C1A9C4205D2054BC01841434919116002E0146000E0156037
:2030000030BDC046FFFFFF0010B5000AFFF7EEFB431E9841800010BD70B50400020031250A
:20302000FF208034A2420ED008211378584046B24300D8B2002E00DA68400139C9B200295C
:20304000F5D10132EEE770BDF0B5C3B00192489A1F009569136804005D1B2D18803000914E
:20306000FFF7DAFFE36F834207D1019B3A00E118009800F071FA00261BE028008030FFF7E1
:20308000CBFFEB6F0226834213D180222900520002A800F061FA02A92000FFF7B5FF061E90
:2030A00007D1019B3A00990002ABC918009800F053FA300043B0F0BDF0B58368C3B00193FF
:2030C0001E6804003500012723696168AA1B4B439A4220D28022019F5200390002A800F02C
:2030E0003BFA013522A80295FFF796FF02A921903800FFF789FF019B226802A99818A369DA
:20310000C01AFFF781FF230007006A4601A92800FFF752FFD8E7380043B0F0BDF8B50C001C
:20312000012500294AD0002848D0C768002F45D043689C460A2B41D80668002E3ED0624646
:20314000037A12025B19534331007F2211404D1EA941F50949194B438021DB19C9020325E6
:203160008B422BD86346E6602361037A26002375437A083663750368C1681A40551EAA41B2
:20318000DB09D31842686360120253435B18A161236021003000FFF7F9FEA3681D68002D56
:2031A0000BD1237D002B09D02000FFF785FF210005003000FFF7EAFE00E000252800F8BDDF
:2031C000F0B58FB002901C000C9105920120131E00D1E1E0029A9446E26863440393934273
:2031E00000D9D9E0002900D1D6E06246A568D2092B68801A0493039BA769013BDB091B1838
:203200000A936368E81B1E023100069300F0ECF84643F31900260D93069B9E4209D0029A34
:20322000F3019A4200D2B5E07F339A4200D9B1E000E000260D9BED1A2B0A0B930023099318
:203240002369012B0CD9012309930B9B9E4207D80A9B0B9A013B9B199A429B415B42099381
:20326000029B002708930C9B0696079301230A9A97423FD07F22B8190D9B0002C018089BCB
:203280000A9913401A0001378032059DB94201D98021CD1A099B002B0ED0069B0B998B4276
:2032A0000AD963681902401AA169884204D20699581A21680302C81A237D002B07D000948A
:2032C0002B000799FFF7C0FE002805D064E081182A00079800F040F9089B5B190893059B51
:2032E0005B1B0593079B5B190793069B013306930023BCE70120002B4ED1049B002B01D1D5
:20330000002049E06668049B9E4200D91E00049B9E1B049BB342F3D0A56901362B689E42B9
:2033200005D001352368FF359D42F7D3F1E7002DEFD06F68AB68029AFB18BA4206D2039A4C
:20334000BA42E6D9029A0021B81A04E0029A9A42DFD20020D11B039A0C3194469A4200D9A1
:203360009C46029BBB4200D23B006246D31A0C9A1018227D002A08D00A00009401002800F9
:20338000FFF762FE0028C4D006E049191A0000F0E3F8BEE701363FE70FB0F0BD0000000080
:2033A0000230800803D00138FDD1C046C046C0467047EFF3108072B6704780F3108870479D
:2033C00002B4714649084900095C49008E4402BC7047C04603B47146490840004900095E3C
:2033E00049008E4403BC7047002243088B4274D303098B425FD3030A8B4244D3030B8B42E4
:2034000028D3030C8B420DD3FF22090212BA030C8B4202D31212090265D0030B8B4219D321
:2034200000E0090AC30B8B4201D3CB03C01A5241830B8B4201D38B03C01A5241430B8B42AA
:2034400001D34B03C01A5241030B8B4201D30B03C01A5241C30A8B4201D3CB02C01A52410B
:20346000830A8B4201D38B02C01A5241430A8B4201D34B02C01A5241030A8B4201D30B02C1
:20348000C01A5241CDD2C3098B4201D3CB01C01A524183098B4201D38B01C01A5241430908
:2034A0008B4201D34B01C01A524103098B4201D30B01C01A5241C3088B4201D3CB00C01A7B
:2034C000524183088B4201D38B00C01A524143088B4201D34B00C01A5241411A00D201461D
:2034E000524110467047FFE701B5002000F006F802BDC0460029F7D076E770477047C046FC
:20350000014B18687047C046640100200E4B70B500251E000D4CE41AA410A54204D0AB006B
:20352000F35898470135F8E700F0ECF9084B00251E00084CE41AA410A54204D0AB00F3582A
:2035400098470135F8E770BD10390000103900001039000018390000002310B59A4203D087
:20356000CC5CC4540133F9E710BD03008218934202D019700133FAE77047031C0A780131BE
:203580001A700133002AF9D170470000003A000007000000000000005265737400030201DD
:2035A0000007060504626F6F7400426F6F74004D43554148543032004D4355424854303165
:2035C000004D4355414D5439390031323334353637383941424344454647480001000F4061
:2035E00001330F402A340F400A350F4031360F4017370F4004400F4004410F4008420F40FA
:2036000009430F4002440F4006450F4001460F4002470F4002600F40870DEC4033013501D7
:203620003F14405449FF4AFF4BFF4F01501859045A045F016040624064406540668068809C
:203640006A806C806E80C041C9FFCAFFCBFFCD83CE03CF01D018D280DA04DB04DF01E04062
:20366000E240E440E540E680E880EA80EC80EE802210231041014681480174017680871014
:20368000D091D208404149FF4AFF4BFF4D834E034F0150185A045F01604062406440654071
:2036A000668068806A806C806E8082018E01B601BE40C054C5ECC720C823C9FFCAFFCBFFBF
:2036C000CD83CE03CF01D018D401D604D804DA04DB04DF01E040E240E440E540E680E88090
:2036E000EA80EC80EE80000202011940410146814801490551015201594563808340950208
:203700009A809E01A001AA10C009D091D208D60BD801E4020C026B10C220DA4057209F1046
:20372000B402D4405720678087409F10A720D440D880E2102220831086209F10AB20C810F9
:20374000E220E440EE205580D4024C02A002A580B402D204EC02A5808580A5800101120197
:20376000FF000000A0111110003C0101482AE38DEC8E00000000000008008800000000004E
:20378000010000000800880000000000020000000800880000000000030000000800880073
:2037A0000000000004000000080088000000000005000000080088000000000006000000DA
:2037C00008008800000000000700000008008800000000000000000028000000F9FF1F0083
:2037E0000000E09B010000000000000000000000000000000200000000000000000000004B
:203800000000000003000000000000000000000000000000040000000000000000000000A1
:2038200000000000050000000000000000000000000000000600000000000000000000007D
:20384000000000000700000000000000000000000000000008000000000000000000000059
:2038600000000000090000000000000000000000000000000A000000000000000000000035
:20388000000000000B0000000000000000000000000000000C000000000000000000000011
:2038A000000000000D0000000000000000000000000000000E0000000000000000000000ED
:2038C000000000000F000000000000000000000000000000030405060708090A0B0C0E0F71
:2038E000101112131415161718191B1C1D1E1F2021222325262728292A2B2E2F30313233A9
:2039000034354300F8B5C046F8BC08BC9E46704735040000711A0000F8B5C046F8BC08BC46
:203920009E4670470D04000038390000C8000020A0000000F00C000000000000AB0000003B
:2039400002000000AB000000AB000000000000008C35000090350000010000000000C05D6B
:2039600080BB000030000000006CDC02F00000000404040000000000000000000000000096
:203980000000000000000000000000000000000000000000023900000000000000000000EC
:2039A000000000000000000000000000000000000000000000000000000000000000000007
:2039C0000000000000000000000000000000000000000000040100200000000000000000C2
:2039E0000000000000000000000000000000000000000000000000000000000000000000C7
:00000001FF
