:020000040000FA
:206000000080002011600000991402009914020010B5024B83F308881BF05EFA00800020F6
:20602000F0B5474680B472B60122B54B00211A708022B44812011EF050FE80220021120121
:20604000B1481EF04AFE40239846B04DBF33A84400279C464646634628682A789843002A60
:206060000ED0013A791CD2B27B0057187C00F31834191A7859781218023311709C42F8D146
:2060800004354545E7D1A24AA24B88211A60A24AA24BC9031A609922A14B20251A60A14A19
:2060A000A14B04261A60AA22A04B12011A6099239F4A1B0413609F4A9F4C13609F4A022083
:2060C00011609F4A9F4913609F4A9027116080219E4A490313609E4A3F0111609D4A1F21F2
:2060E00013609D4A13609D4A9D4B1A609D4A9E4B1A609E4B9E4A13609E4A13609E4A136046
:206100009E4A9F4B1A609F4A9F4B1A609F4AA04B1A6007239F4A13609F4A11609F4A063990
:2061200011609F4A013111609E4A043111609E4A9E4913603C220B7893431A001423134334
:206140000B7016239A4A11780B4313700622994B99491A60994A9A4B1A608B23994A13609F
:20616000994A1160994A1560994A1360994A74331360994A1360F322984B1A60984A994B92
:206180001A603E22984B1A60984A994B1A608022984B52011A602522974B1A60974A984BCF
:2061A0001A60984B984A1E60984B1A603622984B1D60984B1A60984B2360984B23601DF0D7
:2061C00085F9842321221B062360954B1A60954B183A1D60944B954D2360954B80241A6068
:2061E000944B09321A601DF001FA00201EF0C0F930201CF0B1FF1CF00FFF80218E4A8F4BA3
:206200008F481A608F4A904BE40504601A608F4B8F4AC9001A608F4A11608F4A8F491A6047
:2062200000220A608E4919608E490A608E491960BC21890129608D4D1D608D4D2F608D4D67
:206240001D608D4D296080258C49AD0019608C490A608C4919608C490D608C49013D196063
:206260008B49FF3D0D6088258A49AD0119608A490D608A49412519608221894B0906196009
:206280008021884BC9021960432387490B6087490D60874908350B6086490B6086490D607A
:2062A0004421864D2960864D2960864D296086490B604621854B1960854B01391960854B28
:2062C00003311960844B463904601960802383491B060B6003218248824C016082480460A0
:2062E000824806608248016082490B60824B83490B6083490B60834B1A6004BC9046F0BD47
:206300001C700F4000300F4000400F40F8DA0200AA0300000000024033EE33330003024005
:2063200000040240FF0F0000000502400006024000500F4010500F4000202C4018500F40E9
:2063400020500F400000550A28500F4040500F4048500F4050500F4070500F4000000D93F4
:2063600078500F40150505002001204012000A0060012040A0012040E00120401E0E0E000D
:2063800020022040700608006002204013030000A0022040200010400020014004200140ED
:2063A000082001400C20014000800F4001700F4000700F400000044040900400B1032400C9
:2063C0000800044000010440080104400C0104401801044000020440180204400003044046
:2063E000B66DDB000803044000040440B16D0700080404400C040440000504408E8D0000DB
:2064000008050440000604408E6100000806044018060440080704400C00008408000084CF
:2064200024002C4048002C40010000840C03014008202C40300010400600008004010B4059
:206440000C020B4000BF120028030140000001404AFF00801C03014047FF0080080301402A
:2064600042FF00800003014040FF008043FF00800403014041FF00802403014049FF00805E
:206480001003014044FF00801803014046FF00801403014045FF00802003014048FF00807D
:2064A00008010B4000010B40580101405001014044010140400101403C0101403801014010
:2064C00034010140300101402C010140280101401001014008010140042102400000304089
:2064E000300030400140040080003040C00030403000314000003A40C000430000033A40FC
:2065000040033A40000E3F4010B5064C2378002B07D1054B002B02D0044800E000BF012320
:20652000237010BDD01E002000000000945D0200084B10B5002B03D00749084800E000BFA5
:2065400007480368002B00D110BD064B002BFBD09847F9E700000000D41E0020945D0200AD
:20656000C80000200000000010B582B002F0DEFA002819D005F034FF08220400002168463C
:20658000042C1CD01EF0A9FB6A46A12313708C3B5370E8339370F93BD37069460822AB2073
:2065A00001F012FB02B010BD043005F01FFF05F017FF0822040000216846042CE2D11EF01E
:2065C0008CFB6A46A12313708C3B5370E83393700123D470D37169460822AB2001F0F4FA66
:2065E000E0E7C04610B582B005F0FAFE0400042801D002B010BD02F099FA0028F9D105F0FE
:20660000F5FE0822002168461EF067FB6A46D22313707D3B53704E3393700123D470D3714B
:2066200069460822AB2001F0CFFAE2E730B583B0040005F0D5FE04281CD00822002168463E
:206640001EF04BFB6C462B23FF25FF22FF20042123704F336370703BA370F533E1702071AD
:20666000A27121000822AB206371E57101F0ACFA03B030BD1A2CE0D8594BA4001B599F46F1
:206680000CF01AFD05000822002168461EF025FB6C462B2323704F336370703BA370002DE8
:2066A00000DA93E02B0C2A0A280EDBB2D2B2EDB20421D3E707200AF0F1FE050008220021FD
:2066C00068461EF00AFB6C462B2323704F336370703BA3706B1CE2D1FF2504212A002B007B
:2066E0002800BBE70A200AF0D9FE64211DF0E4FF0500E3E70B200AF0D1FE64211DF0DCFF30
:206700000500DBE705200AF0C9FE0500D6E704200AF0C4FE0500D1E709200AF0BFFE050088
:20672000CCE708200AF0BAFE0500C7E703200AF0B5FE0500C2E718F0A7F90500A3E718F05C
:20674000A9F905009FE718F0ABF905009BE706200AF0A4FE0500B1E70C200AF09FFE642132
:206760001DF0AAFF0500A9E70D200AF097FE64211DF0A2FF0500A1E70FF09CFE05009DE730
:206780000BF0E2F905007EE700200AF051FF050094E701200AF04CFF05008FE701200AF0D3
:2067A00035FF05008AE717F0CBFF05006BE717F0CBFF050067E717F0CDFF050063E717F0BA
:2067C000CFFF05005FE7074B1D785CE76D422B0C2A0A280EDBB2D2B2EDB205213EE7C04625
:2067E000A05D0200EC1E0020F0B583B0040005F0F7FD042805D1112C03D8714AA300D35808
:206800009F46FF24FF25FF26FF270822002168461EF063FA6A46272313701D335370223BB0
:2068200093701E3BD370177156719571D47169460822AB2001F0C8F903B0F0BD0023002224
:206840000021012005F058FE002500260027DCE7002017F09DFF002500260027D5E7594BE1
:2068600000225B880021312005F046FE002500260027CAE7534B00225B880021252005F047
:206880003BFE002500260027BFE74E4B00215A880D20002305F030FE002500260027B4E78B
:2068A000484B00215A884920002305F025FE002500260027A9E7434B002259884320002385
:2068C00005F01AFE0025002600279EE73D4B002259881320002305F00FFE0025002600275F
:2068E00093E705F0E7FE002800D18AE702F01EF9002800D085E7344808F00AFA0123314D53
:2069000080B22B7008F0D2F92900012217F08AFF00250026002778E705F0CCFE002800D182
:206920006FE702F003F9061E00D06AE7264808F0EFF9244D80B22E7008F0B8F9290001224A
:2069400017F070FF002500275FE70CF0BBFB00250026002759E705F0ADFE002800D150E7FB
:2069600002F0E4F8002800D04BE70822002168461EF0B3F96A46272313701D335370223B7F
:2069800093701E3BD3700A33D37169460822AB2001F01AF9FEE7012017F000FF00250026D8
:2069A000002732E7002017F0F9FE0025002600272BE7012017F0ECFE00250026002724E766
:2069C0000C5E0200EC1E0020CB18040030B583B06B466A4698710023D3716B460500012278
:2069E000D91D002017F09EFF041E10D1032D0BD86B46DA799B799A4206D06B460122991D73
:206A0000002017F00FFF0400200003B030BD01211F200CF081FCF7E7F0B583B06A4600231A
:206A2000D51C070004220E00012001A901932B7017F078FF012204002900092017F072FFC1
:206A40002043C4B2002C17D1019BBB4206D0042201A90120019717F0E5FE04002B78B342CB
:206A600007D00122290009202E7017F0DBFE0443E4B2200003B0F0BD01211F200CF04CFC4A
:206A8000F7E7C046002330B583B00500042201A90520019317F046FF041E0CD1019BAB4275
:206AA00006D0042201A90520019517F0BBFE0400200003B030BD01211F200CF02DFCF7E78D
:206AC00030B583B000236A46D380104B01AC2080984200D923806B460222991D0A2017F0BE
:206AE00021FF051E0DD16B46DA8823889A4205D0022221000A2017F095FE0500280003B01D
:206B000030BD01211F200CF007FCF7E710270000F8B54F464646C0B419F018FA914B9946FB
:206B20001B68002B00D1E7E04A46127A013AD2B20F2A00D9E0E04946CD68002D00D1DBE0E5
:206B40000E7D711E0F2900D9D6E001324946D0008218002700209200097E9A189C68002CE6
:206B600000D1D4E1DC68002C06D01C69002C00D1CDE101270131C9B2586124339342EDD1A1
:206B8000002F00D0DFE1EB68002B00D1B4E000232B61012E6FD02A6A002A00D1ACE06B624E
:206BA000022E68D06A6B002A00D1A5E0AB63032E61D0AA6C002A00D19EE0EB64042E5AD06E
:206BC000EA6D002A00D197E02B66052E53D02B6F002B00D190E000236B67062E4BD0842215
:206BE000AA58002A00D187E08822AB50072E42D02A008C32D16800297ED01361082E3AD0F9
:206C0000116A1432002977D01361092E33D0116A1432002970D013610A2E2CD0136A143200
:206C2000002B69D0002313610B2E24D0116A1432002961D013610C2E1DD0116A143200298C
:206C40005AD013610D2E16D06A1DFF32D168002952D013610E2E0ED0116A143200294BD0A6
:206C60001361102E07D12B002D33FF33DA68002A42D000221A613C4B4D464E461F001C3594
:206C800064364F44642328006422002198461EF024F82B004033EB601033EB620833EB6367
:206CA0000023EE616435B3766436BD42EAD12F4D6422280000211C301EF00FF82B005C33E6
:206CC000AB622B006433AB632B006C33AB642B007433AB650220FFF779FE00280CD117F081
:206CE000E5FC234B002800D017E1012241465A549B6E002B00D098474B465B68002B00D1CA
:206D0000FCE04A46527A013AD2B20F2A00D9F5E049460D69002D00D1F0E04E7D711E0F2930
:206D200000D9EBE001324946D0008218002700209200497E9A189C68002C00D1E2E0DC682A
:206D4000002C06D01C69002C00D1DBE001270131C9B2586124339342EDD1002F00D0F5E0A8
:206D600008E0C046F01E00205C060000702B0020F02B0020EB68002B00D1BFE000232B6102
:206D8000012E71D02A6A002A00D1B7E06B62022E6AD06A6B002A00D1B0E0AB63032E63D054
:206DA000AA6C002A00D1A9E0EB64042E5CD0EA6D002A00D1A2E02B66052E55D02B6F002B0A
:206DC00000D19BE000236B67062E4DD08422AA58002A00D192E08822AB50072E44D02A00F4
:206DE0008C32D168002900D188E01361082E3BD0116A1432002900D180E01361092E33D0BC
:206E0000116A1432002979D013610A2E2CD0136A1432002B72D0002313610B2E24D0116A28
:206E2000143200296AD013610C2E1DD0116A1432002963D013610D2E16D06A1DFF32D1686B
:206E400000295BD013610E2E0ED0116A1432002954D01361102E07D12B002D33FF33DA68B9
:206E6000002A4BD000221A613A4B4C461D003A4B4D441E00394B4E449C4601239846644426
:206E80002800642200211DF028FF2B004033EB601033EB620833EB634346EE616435B37653
:206EA00001276436A542EBD12D4C64222000002180301DF012FF22008C23C032E250220048
:206EC0001033C832E25022001033D032E25022001033D832E2502633E7540220FFF776FDEA
:206EE00000280BD117F000FC1E4B002821D11A00643257709B6E002B00D098470CBC904610
:206F00009946F8BD002FF9D04B465976F6E7002F00D1F1E64B461976EEE642469A5C002A35
:206F200000D0E5E61A0064325278002A00D0DFE6E2E664229A5C002ADCD11A0064325278E8
:206F4000002ADBD0D6E74B4619761CE64B46597610E7C0465C060000A40600009C0C00006C
:206F6000702B0020F02B002010B5044B81001A18127AC95817F028FB10BDC046F01E00207C
:206F800010B5034B00201A7A196817F01DFB10BDF01E0020F0B54D465F4656464446F0B4E8
:206FA000252089B00BF04EF864230022C04D0192EB5C002B63D12B0064335B78002B14D17E
:206FC00019F0ACF8002806D0022800D1F9E000211E200CF0A1F925200BF03CF809B03CBC18
:206FE00090469946A246AB46F0BD2C006C346378002B0CD07E26AB5D002B00D121E2012BD1
:2070000000D01BE217F070FB002800D120E2019B002B00D181E105F069FA0228D0D0A54E27
:20702000737E002BCCD0717A0029C9D000239946A14B002498467268E30094461B199B0095
:207040006344DA68002A09D0586984466746686FC71BBA4202D8844500D21FE10134E4B217
:207060008C42E8D3737E4B45AAD122200CF040F90028A5D1012122300CF04EF9A0E76C24A8
:207080002B5D002B31D06E27EE5D002E00D1D0E1012E00D0C9E16F239846EA5C874B1979E9
:2070A000914200D8D7E170218946695C002900D153E2696FA86F1B88091A994215D9434612
:2070C0000132EA546B6F6A46AB674B461279EA547123EB5C002B08D11BF0FCFA02231840EC
:2070E00003D143462855E855E85406AB0822180000219B461DF0F1FD04AA944607236344F4
:207100009A460023524613707C33EB5C002B5DD1684E317D002959D0694F994632000193EF
:207120003B004E464F469046994605E04346197D013614378E4242D24346DB68DC19226980
:207140006B6FA0689B1A834201D2002AF0D10822002158461DF0C1FD002352461370E368D8
:2071600051465846984753461B78002BDED04A467C21515C09015218D269002A00D1A3E0EF
:207180007D224B469B5C4F4A7C2194467D204A46515C125C1B019C44914200D1B7E0604693
:2071A0001BF0E6FA002800D12AE16B6F013623614346197D0123143701938E42BCD34F4635
:2071C00007E001211C300CF0A7F804E700233C4F01937D227C213800BB5C795CBA5C1C30D0
:2071E0001B01C018914200D104E17E23FB5C012B00D160E11BF0BCFA7D2400223B5D00219F
:207200001B01FB18DA61986A08321DF066FD03223B5D013313403B5505F068F9022800D133
:20722000C9E6244E337E002B00D1C4E6317A002900D1C0E6002399461F4B00249846326883
:20724000E30094461B199B006344DA68002A08D0586984466746686FC71BBA4201D8844528
:2072600012D30134E4B28C42E9D3337E4B4500D0A1E622200CF03CF8002800D09BE601212F
:2072800022300CF049F896E61B699847474503D94B460133DBB29946317AE2E71B69984710
:2072A000474503D94B460133DBB29946717AD5E6F02B0020F01E0020DF2E0000CC0000202D
:2072C000702B00208C2B00202268181C94462279082B00D9BAE0C3B2019363464944CB61D8
:2072E0002123CA5422228854886A019A59461DF0D6FC7C224B469B5C793A013313407C2104
:207300004A46535400227E234946CA5438E74B44DB69002B00D042E747E706AB082218008F
:2073200000219B461DF0D9FC04AA94466A460723127963449A461A702B007C335B78002B93
:2073400000D095E0894E717D002900D190E0E122002391465A46864F0292BB46B0461F009D
:20736000019308E04346597D019B1437013301938B4200D3A2E043461B69DC1922696B6FFA
:20738000A0689B1A834201D2002AEDD1029E0822002130001DF0A1FC524600231370E36862
:2073A00051463000984753461A78002ADAD0E0215B465B5C59461B01C918803109680029E8
:2073C0007ED04A465B469B5C6A4A1B019446E0215A464E461800515C925D64306044914299
:2073E00000D192E01AF058FE002800D19AE06B6F2361B7E7FB18DB69002B00D0F5E60BE75C
:207400007D224B469B5C00211B014B44D861753A986A1DF062FC7D224B469B5C7A3A013315
:2074200013407D214A465354BFE66B461B79EB555BE617F079F90123EB5556E60023AB557D
:20744000E5E517F077F90123AB55E0E5082042E76070A855DBE570229146AA5C002A7CD03F
:207460006A6FA96F5B88521A9A4200D92AE63CE63F4FE122E021BB5C795C1B01BA5CF81825
:207480008030914248D0E223FB5C012B62D01BF06FF9E124002180223B5D1B01FB189950AC
:2074A0008C331868783A1DF018FC03223B5D013313403B55AFE51AF0EFFD9DE65F46D8E775
:2074C00021688C4621790391111C082A00D908215B4418006646803006606E46367B8C3325
:2074E000CAB281714671029918681DF0D8FBE0225B469B5CDD3A01331340E0215A465354EC
:207500000122E2235946CA545BE75B4480331B68002B00D066E76AE78022FB189B58002B03
:20752000B1D178E54A465B469B5C00211B015B441A008C3380321060186808221DF0CDFBEE
:207540004A465B469B5C03220133134049465A4653544CE71AF0A0FD9BE717F0A7F87123EB
:20756000E8546B6FAB674B46EE54BEE5F01E0020702B00208C2B0020F0B55F4656464D4634
:207580004446F0B4654B87B01A681100039280225201114200D19DE01A60614B1B680193DB
:2075A000604B98461B7A0293002B6FD00123474699465D4B00259A467E375C4C0097019BE1
:2075C0004A46EB401A4258D02368002113432360082204A81DF081FB226823681203120F3D
:2075E000D1B26068DB0200D580E0400D23689C46002A2AD0A36804AE1B0E3370012A24D0A8
:20760000A3681B0C737002291FD0A3681B0AB37003291AD0A368F370042916D02600E368E0
:2076200004AF1B0E0C363B7105290ED0E3681B0C7B71062909D033681B0ABB71072904D01E
:207640003368FB71082900D03368642346466B43F6187C3637783F01BB465B444344DF69A8
:20766000BB46002F44D042461268EB00944652465B199B00526F63445A61009B01356433CD
:20768000029A0093EBB22034934298D302200AF0CDFC039BDB0516D5204A254B11680B409E
:2076A00013601F4B1C681F4B187A00280BD000230121204D2200DA40114200D0E9540133E8
:2076C000DAB29042F6D807B03CBC90469946A246AB46F0BD802292001142DAD01A606C215C
:2076E0000122114B5A5413315A54D2E7C0087DE7D86160464F46000D38402127D8552220D6
:207700001954986A04A91DF0CAFA032233780133134033705B46009A1370A4E700002F40CA
:2077200008002F40F01E0020F02B0020A0002F40FFFEFFFF702C0020F0B557464E46454642
:207740008021E0B4624B49011A6882B00A421ED0604D1960697A604B186800290ED0C3070A
:2077600000D5ADE00123012605E01C000200E2400133164215D1DAB28A42F6D302200AF088
:2077800055FC02B01CBC90469946A246F0BD802189000A42F5D001221960504B6C335A70E9
:2077A000EFE7FF234E4923405A0156184D4988469044DA00D3189B009A4601229146336801
:2077C000002113433360073268461DF086FA4846326833681203120F1B0DD1B218421DD040
:2077E0007068C308994643461B689C46002A19D1642363433C4CEE18A046B044444624784A
:207800002401E418394B2C19E3181F68002F37D0324A6B68526F53445A61AFE77068430DA6
:207820009946E0E76F46B3681B0E3B700129DFD06F46B3681B0C7B700229D9D0B3681B0A2F
:20784000BB700329D4D0B368FB700429D0D0F76833003F0EB8466F4640460C3338710529AC
:20786000C6D0F668360C7E710629C1D01E68360ABE710729BCD01E68FE710829B8D01B6841
:20788000484618601A4B0137E01863461B0D3B400370184BE3181970CD23DB009C46644452
:2078A000206869461DF0FBF9434603221B780133134042461370104B9C4666443770A7E7A1
:2078C00000239A46074B064E9846002475E7C04600002E40F01E002008002E40F02B00204E
:2078E000A0002E40A0002F40BC0600005C0600006106000062060000BE0600006C23024AD9
:20790000D05C6B3B58407047F02B0020F0B54D4644465F4656460022F0B46B4D83B02B7AB2
:207920009046002B59D0694BAB469A464346DB0043449B009946642743465F43EB191E005B
:2079400001937D3635E022212B68E219AA184B44515C1A7E914207D0DA69002A04D04046F3
:2079600090475B461B684B4452464146525C002A09D01A6A002A06D00023514640460B548A
:2079800090472B684B44E4192C19A06A9B6898470022337800211B01DB19EB18DA61986A82
:2079A00008321DF09AF903223378013313403370019B7C3334781A78337824019A42C2D12B
:2079C000E3195B44DB69002BBDD143460133DBB298465B461B7A4345A8D800226B7A9046CC
:2079E000002B6AD0394BAB469A464346DB0043449B009946642743465F43EB199C46344E4A
:207A00000193664440E033496B688C46E219AA1862444B4411781A7E914207D0DA69002ABD
:207A200004D0404690475B465B684B4452464146525C002A09D01A6A002A06D00023514614
:207A400040460B5490476B684B44CD22D2009446E4192C19644420689B689847002133784D
:207A60001D4A1B01DB19EB189A181160CD22D20094466344186808221DF02FF90322337878
:207A8000013313403370019B144A3478944663441A78337824019A42B5D10F4AE3199446A2
:207AA0005B4463441B68002BADD143460133DBB298465B465B7A434597D803B03CBC90463E
:207AC0009946A246AB46F0BDF01E0020702C0020BD060000620600005C060000BC06000008
:207AE000024A536F013353677047C046F02B0020014B586F7047C046F02B0020F0B5474655
:207B000080B4944606AA05001278002B01D0082A02D904BC9046F0BD642444437C2080465B
:207B2000284E3719B84440460078000100193018C469002C29D064236B43F218140030004E
:207B40007D3421787C320901CB18117822781C30C01891422DD0012D30D01AF009FE0028C2
:207B6000D7D164235D4374197D34237808221B015D197619F0610021B06A1DF0AEF80322AE
:207B80002378013313402370C3E7C161644621214454013142541900806A1DF080F8434607
:207BA00003221B787E370133134042463D701370C1E7F318DB69002BCDD1AAE71AF06CFA58
:207BC000CDE7C046702B0020F8B5002901D0082A00D9F8BD7C251F4C635D1B01E318DE699F
:207BE000002E1ED07D227C212000A35C615CA25C1C301B01C018914227D01AF0B9FD002861
:207C0000E7D17D25635D08221B01E318D8610021986A1DF062F80322635D01331340635522
:207C2000D7E70D4FD8618742804121274042D85522201A54986A1DF032F80322635D01336E
:207C4000134063557E23E654CCE7E318DB69002BD3D1BEE7702B0020EF070000F8B504F086
:207C600045FC022825D0002300269C46124F134D3B000833F25C002A13D0013AD2B20132F5
:207C8000B300D400FB58A418A4001C19DA68002A04D05869696F091A8A4207D824339C4299
:207CA000F4D10136022EE3D16046F8BD01239C46F7E701239C46F7E7F01E0020F02B002058
:207CC00030B5012800D930BD0A4B8400E1501B181A72002AF7D0084C8B68A34207D00023F0
:207CE000013324319342EEDA8D68A542F8D1034B5874E8E7F01E0020B9F60000702C002037
:207D0000014B587C7047C046702C002010B5012805D8034C8300E3182018D960027510BD7D
:207D2000F01E00206422034B985C002801D1643358787047F02B0020014B98787047C046E1
:207D400008002E40012804D8024B012218187C23C2547047F02B0020012804D8024B0022ED
:207D600018187C23C2547047F02B00207F23014AD05C7047F02B002000217F23014AD154EE
:207D80007047C046F02B002010B5002803D0062201491CF084FF10BDCC00002010B50100AB
:207DA000062206481CF07BFF054807F0A1F8054807F09EF8044807F09BF810BDCC00002081
:207DC0006410F40046ED5D00A5CE600010B516F047FE030080B21B041DD41249124A8C46FA
:207DE00013886344C01880B20223D356012B02D001330CD00020948821001CF059FC89B2E2
:207E00000804401A21001CF057FC80B210BD1388181A80B2EFE7034B034A9C46604480B255
:207E2000E2E7C0460080FFFF842C002070B519F079FE012807D00022314B00209A71DA716C
:207E400006F0D0FE70BD2E4CA579012D01D0A071F8E7E379002B11D02A4B1B78002B03D13B
:207E6000638101232372EDE706F0C2FE0028E9D0237A002B11D006F021FCE3E716F0ECFD85
:207E800016F024FE16F0E0FD16F0F2FD16F00EFE012006F0A7FEE571DEE706F0E7F90223FE
:207EA000E3566081013316D00C23E356012B1AD0154A238894466344181A85B2A388E08988
:207EC000124958431CF0F8FB281880B216F0CCFD01232372CFE70C23E356012B08D00A4B3C
:207EE000181A85B2EAE7084B9C46604485B2E5E7054B25889C46401B604485B2DEE7C0468C
:207F0000842C0020D20000200080FFFFFFFF000010B506F061FE002805D00838C0B2012831
:207F200001D905F045F810BD70B5104C237C25885D4304F053FB010028001CF0BDFBA37CAD
:207F4000A080607C834204D06423A074584316F0CDFD6069A369834202D0A06116F01EFBFA
:207F6000217C206A1CF01EFBE06170BD842C002010B516F0B3FD032818D0022800D010BD22
:207F800001212C220F4CA36AA1540133A362012BF5D90231206B0AF0FFFEFF23184020632F
:207FA000EDD001211A200BF0B7F9E8E72421054B1A6A01321A625A5C002AE0D0013A5A54ED
:207FC000DDE7C046842C002010B516F077FD012802D10022014B5A6310BDC046842C0020FE
:207FE00070B5AB4C237A002B03D02C23E35C002B51D016F045FD431C0020002B02D0227C8E
:20800000002A21D1606302200AF040FE002802D0237A002B31D1206B002812D19D4B1B7852
:20802000012B27D0002B09D0022B1DD0032B56D1022004F0AFF9E36D98421BDD636BA365F4
:2080400001E00023A36570BD21880029DAD0656953432801401B43254B43655780006843A6
:2080600099101CF029FBCDE7022004F093F9E36D9842E3DDA36CA365E5E7874D2B89EB8011
:2080800016F0EEFC2C23E25C80B22881002A52D00022E254BFE7804DAB886B8016F0E0FC71
:2080A000698880B2A88088421BD00225228865570AF042FDADB26843A36B05B2002B00D030
:2080C00085E0002D24DD00234022A387A25AE38F9A422CD90133E3874223E25615E0A065DA
:2080E000B1E7FA22A36B52000133A36393421BD9A38F002B5FD0013B9BB2A387002B00D12E
:20810000C4E04223E2560023A3634323E25470E7002D09D000234022E387A25AA38F9A4203
:2081200000D885E00133A3874223E256EDE701224223E254E9E702262288E988A6570AF06B
:20814000FBFCB6B27043238806B20020002B0FD0217C00290CD04322A256002A08D0442219
:20816000A05A59430201101A800070431CF0A4FAA064022004F00EF90AF0C6FD4C23E35ED1
:20818000984201DD002E40D04E22A35A002B01D0013BA35250222B89A55A9D4221D05221E7
:2081A000605A834200D136E7A052635200225423206BE25230E7E38F002B04D0013B9BB242
:2081C000E387002B9DD100224223E2549BE728000AF09AFD0A2800DC73E7A36B013BA363EC
:2081E0006FE75223E25A954200D114E75421635A01339BB263520231615A99421ED3206B28
:208200005023E2520233E55206E716F03DFC012827D016F039FC0028B6D116F03BFC0028B0
:20822000B2D14E22A35A312B20D80133A352B1E7FF224223E254013AFF3A66E70221206B0E
:208240000AF0AAFDFF231840206304D01A2001210BF062F8206B00225423E252023BE25A2A
:20826000CEE716F017FC0128D3D1DAE70421206B0AF092FDC0B22063002803D001211A201D
:208280000BF04AF800224E23E25283E7E38F98E7842C0020F45E0020D2000020014B986DFA
:2082A0007047C046842C00204323014AD0567047842C0020FD23421C1A4201D1014B9870D3
:2082C0007047C046842C00200220014B18567047842C00204423014AD05A7047842C00204B
:2082E00010B5042004F056F80AF00EFDFA235B00984206DD24220A4CA35C012B02D8013344
:20830000A35410BD0521206B0AF046FDFF2318402063F6D001211A200AF0FEFFF1E7C046B7
:20832000842C002010B5174C1749184B2000184A196004F01DFB2000236B34305A421900B4
:2083400004F016FB04F0B2FA606604F05DF9236FA066DB43E366A36FC043DB4363670D4B14
:2083600001211A689861D243E2679A680620D2435A601A69D243DA60626ED2435A610AF09F
:20838000C7FB10BDF02C0020FF030000DC00002001FCFFFF702D0020164910B5164C4B6E1D
:2083A0006269C86E53400A6F42401340486F8A6F42401340C86F2268424013406068A268EE
:2083C00042401A408B6EA1694B401340E16822694A401340013302D001200BF0A3FAE36924
:2083E00098010AF0BBFB616A206206200AF056FBA06210BDF02C0020702D002070B5104C2D
:20840000104D626AA36A52435B43D218E969921112200AF011FBEB6AE861606A5B43404353
:20842000181A0AF09BFB084C0200216813200AF003FB020020604142044804F0C5FA70BD3F
:20844000F85E0020702D0020DC000020F02C00203023F0B5264C83B0E15C12200AF0D4FADD
:2084600031231320E15C0AF0CFFA32231820E15C0AF0CAFA33233425E15C1A200AF0C4FA0F
:20848000615D06200AF030FB615D06200AF036FB04F012FA010009200AF01AFC002817D17A
:2084A000E66B276C09F0D6F8124D009029003B00320011480AF0E0F9A16C6064002904D092
:2084C000E06C68431CF0F8F80100216503B0F0BD04F0F2F9002801D1A063E1E704F0ECF945
:2084E0000AF090FC010905481CF05CF8A063D7E7702D002010270000B80B00000080FF7FC9
:208500005423F0B54746994C80B4E35C984E002B00D06FE0974D280004F038FA280034306C
:2085200004F034FA4C22002130001CF0D6FB0023E36123620AF0E8FE022800D189E02369C1
:20854000002B00D1CBE0A36A0120002B02DC581E834158426C26A055032003F01BFFA757B4
:20856000A36B083000115F430AF0CEFB8023DB019C466E2378436044C013E0520220A657CA
:2085800003F008FF0AF0C0FB7023FA217043E35E890058431CF090F85A23E0522369012B6B
:2085A00000D194E0AB6E002B00D193E0A36C6367072008F073FF061E00D081E08020C000CF
:2085C000A96F2268A3682C6F41434243434360438012891292129B12286428006964EA60D8
:2085E0002B6104F0DBF92800343004F0D7F904BC9046F0BD336AB269981A0AF085FB5E4B07
:20860000984205DD336A002B6CDBB369002B6CDB00213B200AF080FEF3697269981A0AF02A
:2086200073FB554B984205DDF369002B62DB7369002B62DB00213B200AF06EFE5423E35CD0
:20864000002B00D166E74B4D0AF05EFE022800D075E75623E75AAB6E002B6ED0012B51D103
:2086600004F008F88046062003F094FE434602115343E16D1A0018200AF0DEF9F169030194
:20868000E06598460020002904D0306A636C58431CF012F8236E59421A000AF0E3F8A36B57
:2086A000E0644044A0645843636E02309C468023C0101B0260449C4660666044000C22E0E0
:2086C00003F0C6FF310080021BF0F6FF78E7A36A63676DE7032003F05DFE606768E7FFF728
:2086E000E3FD37E7B369002B92DB01213B200AF013FE91E77369002B9CDB01213B200AF0D3
:208700000BFE9BE700202369012B0ED01B4A39000AF012FA6A260200A15F1A200AF08CF929
:208720005623A0533818E05209E7A36A002B0ED15823E05A1033E052E8E7FFF747FB582398
:20874000E25A0233E35AD318C01880B2DBE70833A06B1B1158438023DB019C466822604418
:20876000A35AC013C01880B2A052CFE7702D0020F85E0020F02C002050C30000FFFF0000F7
:20878000F8B556464D4644465F465623F0B4C14CC14EE55AB36E002B00D11DE1012B1ED021
:2087A00000202369012B4AD0BC4A29000AF0C4F96A270200E15F1A200AF03EF95423E35CED
:2087C000E053143F2818E053002B41D1012009F02DFC3CBC90469946A246AB46F8BD03F0F2
:2087E00049FF0700062003F0D5FD02117A43E16D18200AF021F9AA4BE065D9690701002031
:20880000002904D0186A636C58431BF055FF236E59421A000AF026F8A36BE0643818A0640C
:208820005843636E02309C468023C0101B0260449C46236960666044000C012BB4D1A36AE2
:20884000002B00D0F7E05823E05A1033E052ABE7002008F023FE924DA860012008F01EFE35
:208860006860022008F01AFE8E4BE15B984642468B095B00D35E424699468023DB01CB189A
:208880009BB29B095B00D35E874A9A466B6828605A43864BE8604343D21880239B009C4609
:2088A000624493125246424394464A465A43624493468022920094465A46624492129446F8
:2088C0006A6152462B615A434B465843131A8022920091464B449B12AB61754B99461B792D
:2088E000002B00D0B6E06A6AA86A6E23E35A4446C91889B28B095B00E75E8023DB019C46F8
:20890000614489B289094900635E140001007C4359436418802189008C465A4378436444F3
:208920006449A412131A614363449B125A028A1A614661482C6344435118121B624490126B
:208940004A46766E52798912EB626B63A963E8637410002A4AD00A00814200DA0200170043
:208960009A4200DA1F000A00814200DD02009A4200DD1A00BA184C4F0132B84652109B1AEE
:208980007B438027891A821A4046BF00BC46504347460200794363449B12614462446343C9
:2089A000891292126143624363449B1261446244891292121B19091910199E4229DB002BC3
:2089C00060DB2B648E4227DB002958DB6964864225DAAE64300025E0FFF7F8F95823E25A26
:2089E0000233E35AD318C01880B2DAE68022920094460200604663436143624363449B1257
:208A000061441018891280121B19091900199E42D5DA2E648E42D7DA6E648642D9DB0028D5
:208A200033DBA86415F040FD686C15F041FD286C15F042FDCAE60833A06B1B11584380238B
:208A4000DB019C4668226044A35AC013C01880B2A052A9E662463000EB693430991AC911B2
:208A600003F0C6FFAA692B6A3000991AC91103F0BFFF326EF06A6A62A862E15B35E70023DD
:208A80006B64CAE700232B64C4E700230020AB64C8E7C046702D0020F02C0020FFFF0000FB
:208AA000F85E0020545E02009E0400004F020000DC00002077030000EE060000024B800959
:208AC0004000185E7047C046545E02008023DB019C46604480B2024B80094000185E7047F5
:208AE000545E0200014B18627047C046F85E0020014BD8617047C046F85E0020014B9869C4
:208B00007047C046F85E0020014B58697047C046F85E0020014B586A7047C046F85E0020A1
:208B2000014B986A7047C046F85E00205423014AD05C7047702D0020014B18797047C046B8
:208B4000DC0000205423014AD0547047702D0020024B1861C043D8607047C046702D002044
:208B6000014B186A7047C046702D0020014B58627047C046702D00205823014AD05270478E
:208B8000702D00205823014AD05A7047702D00205623014AD05A7047702D00203423014AB0
:208BA000D0547047702D0020044B054A5B6A106B181A43425841C0B27047C046F85E00204A
:208BC000F02C0020014B586F7047C046702D00207023014AD0527047702D00207023014A7A
:208BE000D05E7047702D0020014BD8697047C046702D00207823014AD0547047702D00204E
:208C00007823014AD05C7047702D0020F8B5BC4C2500F035200000220021303403F0A8FE6F
:208C2000AC42F7D1B74AB848110003F0A1FEB74C002220002023E15E2C3003F099FEB44D2C
:208C400000223823E95EB34803F092FE200000226030B14903F08CFE3823E95E0022AF48CE
:208C600003F086FE3823E95E0022AD4803F080FE4023AC4D8026E95E281D4A4203F078FED0
:208C800005210F2009F0C0FE0521102009F0BCFE0621152009F0B8FE0621162009F0B4FEAC
:208CA0000521192009F0B0FEA978222009F0ACFEE978232009F0A8FEC8210020490009F01A
:208CC000F9FFC8210120490009F0F4FF0421032009F0F0FF0821042009F0ECFF08210520AE
:208CE00009F0E8FF0521062009F0E4FF0121072009F0E0FFFFF7EEFA0100FA2000011BF046
:208D000051FC81B2022009F0D5FF0121042009F0FFFE0121052009F0FBFE0121002009F034
:208D2000F7FE0121012009F0F3FE0121022009F0EFFE0121032009F0EBFE0121072009F07E
:208D4000E7FE0121082009F0E3FEF6000121092009F0DEFE30000AF059F83C211BF0ACFC69
:208D6000714B012218613B23704D0020EE802E816E816F4EEA54310004325533E2546D4B7C
:208D80001A685A602B181A00783212881C00D2430A801A00AA321288DC34D24324884A860A
:208DA00032181700E44364373C801C000F34FF3424883237E4433C801C004134FF342488DA
:208DC0003237E4433C801C007334FF3424880A30E4437C861C007A342488623FE4434C8038
:208DE0001C00AC342488E4438C861C00DE342488E4433C801C001134FF3424883237E44305
:208E00003C801C004334FF3424883237E4433C801C007534FF342488E4437C861C007C343F
:208E20002488623FE4438C801C00AE342488E443CC861C00E0342488E4433C801C0013346D
:208E4000FF3424883237E4433C801C004534FF3424883237E4433C801C007734FF34248881
:208E6000E4437C861C007E342488623FE443CC801C00B0342488E4430C871C00E2342488F7
:208E8000E4433C801C001534FF3424883237E4433C801C004734FF342488E4437C861C00A4
:208EA0007934FF342488571CE443FF373C801C0080342488943FE4430C811C00B2342488E9
:208EC0000332E4434C871C00E4342488FF32E4433C801C001734FF3424883237E4433C80DD
:208EE0001C007B334934FF34FF3324881B88E443DB437C860A311380322800D042E7F8BD5A
:208F00002864002000FCFFFF986500204C600020C46100203461002010270000046000200D
:208F2000B45F0020445F0020E060002000620020EC2D00208061002010B5064B2C335B79D6
:208F4000062B00D010BD05F053FE0028FAD006F09FFEF7E7EC2E0020F0B55F4656464D46E7
:208F60004446F0B49B4B85B0D869984609F0CCFE3226994C83462178022009F0C9FD2178AD
:208F8000032009F0C5FD954F954DBB5D0420EB185033197809F0A8FDBB5D0420EB18723358
:208FA000197809F0ABFDBB5D0520EB185533197809F09AFDBB5D0520EB187233197809F027
:208FC0009DFD884B01209946BB5D4B443033197809F08AFDBB5D01204B443033197809F054
:208FE0008DFD6178022009F07FFD6178022009F085FD6178032009F077FD5E366178032008
:2090000009F07CFDA15D072009F06EFDA15D072009F074FDA15D082009F066FDA15D08201E
:2090200009F06CFD704C0920217B09F05DFD217B092009F063FD342342460020D15C09F0B7
:20904000E3FC6A4B20209A4645235246D15C09F0DBFC674E2220B17809F0D6FCF1782320C8
:2090600009F0D2FC8A239B00EC18F0339C4665442000303403F092FCAC42F9D1736BB18F54
:20908000002402935B4601940093726B0023002009F006FCB36BB18F306102935B46019479
:2090A0000093B26B0023002009F0FAFB7061484603F074FC4F4803F071FC4F4C200003F068
:2090C0006DFC2000343003F069FC504603F066FC4A4803F063FC301D03F060FC23002C3B56
:2090E00020229A5E2000002103F06EFC43460020598F09F0EDFD424C00285CD043465B8FCF
:20910000002B27D100234246936053601360D360E169032009F0DCFD00280CD0E569002D77
:2091200046D0290037481BF0C7FA2900606236481BF0C2FAA0622C37FB78012B03D1FF227C
:2091400041463433CA5405B03CBC90469946A246AB46F0BD4346188F0028D3D06378002B1A
:20916000D0D07A26FF36704309F050FE43465D8F29001BF0A1FA4346FA219860188F890070
:2091800070431BF099FA2900060000041BF094FA43463100586068011BF08EFA4346186043
:2091A0008020617840021BF087FA4346D860AFE76562A562BFE76178022009F089FD0028FB
:2091C0009CD143460130198F09F082FD002895D19EE7C046E06000204C600020EC2E0020C9
:2091E00000620020986500202061002004600020445F00203461002078600020B45F002008
:20920000C461002040420F00B0B89100054BDA78002A06D10521044A2C3251710122DA70DB
:209220001A707047FC5F0020EC2E0020F0B5444656464D465F463523F0B4A64C87B0E556D5
:20924000FFF72CF8A44B684398465B7858433C22A35E584309F068FD0500206320696843FA
:2092600009F068FD2A00616AE062002009F0E4FB23696062584309F05DFDE3682062606A8E
:20928000584309F04BFDA368E0614343A3626368584309F043FDA061FEF7A2FE8F4D236B7C
:2092A000A96B1A0022206B6309F0C6FB8C4EA8636A6BB16C232009F0BFFB5022EB6BB0640D
:2092C000B25C984200DDD3E09B1AEB635423854FF35A786A994609F017FD52235122F35C76
:2092E000B25C4946029201930090002009F0FAFAC3B299461900242009F086FBEA6B296CF7
:20930000242009F099FB56234A462864F254A96B7378F0647164002B01D0010070643378FD
:20932000002B63D0B36CCB1A99464023F25E331D9A461800514203F047FB4946504603F011
:2093400057FBB36C002B00D18EE03023F25E338EF287654A508B92461B181BB29B461300FF
:209360005A469A83FFF7FCFB604E8146337E002B00D0BFE02B002C335B79022B42D9032BAF
:2093800038D000234422AB520232AB5200200022B2803522F080A056584364235843984642
:2093A000FFF7A0FB022030560622B35E4042584343465843FFF79CFB002009F067FC0028C9
:2093C00058D1012009F062FC00286BD1032009F05DFC002803D0FEF783FB0BF0BFFF07B035
:2093E0003CBC90469946A246AB46F0BD301D03F0CDFAAAE709F088FF0128C2D843461B7843
:20940000012BBED0737E002B00D0F2E05B463848584343463A21595E43469B6A59431BF048
:209420004BF909F0E9FC4423E8520E3BE3569946002B00D147E1FFF7D7FBF369C11A3000B5
:209440002C3003F0D5FAB36D19B2718443461B78012B00D151E144234842EA5E318500B222
:209460004623E952130093E73363002200236FE7D3182AE7A06A09F047FC09F0D1FC0A2157
:209480001BF090F8EB6C9C466044E86409F0C2FC7B6838629C4660443860012009F0F6FBB3
:2094A000002893D0062007F0F9FF24211BF004F92B6DFA219C466044890028651BF0FCF871
:2094C0002421B861F8681BF0F7F87B699C46604478617BE7E0600020C4610020EC2E002050
:2094E000445F002080610020006200204C60002010270000052009F0C9FB002871D0B94BD4
:2095000098461B78002B00D1E5E043465B78002B0ED043460A229A5E434608215B5E9A42C0
:2095200006D04346DB88994502DA002342465370424680239288DB019A4207D843460821B3
:20954000595E1222B35E8B4200DDFAE043469B78002B04D03623E356002B00D0D9E0A24BBD
:209560009A46180003F012FA534600222C3B5A8400239A464346DB88994504DA43465B78ED
:20958000002B00D1CEE001234246537043460C229A5E0020914600224146CA8109898C46B4
:2095A000414663464B814423EA52534646224B44AB520E23F25E514209F054F94423E85284
:2095C00098461023F25E462399465142E85E09F049F94B46E8524346EA5E404200B21300EB
:2095E000D6E64423EA5E4623E85A1300404200B2CEE6042009F04AFB0028F2D0072007F0F0
:209600004DFF8146FFF7F0FAF369C11A3000603003F0EEF98C235C22F3587448B352E36901
:20962000904658434B4619111BF046F809F06CFB4346F35A6E4A1818002100B209F012F9C0
:2096400003B25846984609F05FFB6A4A002109F009F903B299465B46002B00DAB5E00123C3
:209660000593D22352465B00D35C012B00D882E04B4602934346019364235F489B460093F0
:209680009133FF3316221521383009F0CFFB44239A46059B162258435346E8524B46029388
:2096A000434601935B46554800939133FF331521543009F0BBFB4623E8525346EA5E404257
:2096C00000B2130064E630002C3003F05FF94B4600217384BAE60A23F15E022009F0DEF9ED
:2096E0004423E852984603200C23F15E09F0D6F94623E8524346E85E5BE74423EA5E002AF5
:209700001BD0F38C581A80B201B24042318500B2A6E6FFF749FA00285AD0B36D73849BB223
:209720009A4627E7434612229A5E43461021595E43468946998110002EE732850020002186
:209740008EE6082009F0AAF948239A46E85243469888FFF7B3F95346EB5E58434346801269
:2097600058829888FFF7B2F95346EB5E5843434680121882EAE64B46029343460193642382
:209780009A4600939133FF33162215211C4809F04DFB44239B46059B162258435B46E852B7
:2097A0004B460293434601935346164800939133FF3315211C3009F039FB4623E8525B46F3
:2097C000EA5E404200B21300E2E50F4B059348E7FFF70AFAF369C11A30002C3003F008F961
:2097E0009BE7C0469C5F002078600020093D00001027000034080000E86F020068730200DF
:20980000E8680200686C0200FFFF0000F0B55F464D4656464446F0B4072091B007F03EFEE0
:209820000A211AF049FF0390062007F037FEEF4F0490F86909F068FA824603F043F8834679
:2098400003F034F8EA4D81462B002C331B795BB2013301D100F072FC5423EA5C3223EA540C
:209860007B6A002B01DC00F071FC01213622B954E04C1A22A15E002900DC9AE201222C23BD
:20988000DD4EF254DD4B1A0098465346526A5343B360FFF765F94B46002B05D05843800A2F
:2098A000834501D200F061FC0023F361002243461520196A09F0C0F84346AA6D18627B6A36
:2098C000E96DAB659B1A642216205A4309F0B4F8FB68E865584309F021FA706203F02CF827
:2098E000002800D084E3C64BF06099463061B062E0839882D8822C239B46AB445B469B787C
:20990000022B01D100F0E9FBBE4BBF4E9A460021022009F007F90021032009F003F90023E6
:209920004A4653819381524663801364B381738109F0EAFC2B002C335A79022801D100F06D
:20994000ECFB002A00D11A710023F15E0423F05E814200DA5EE20623F25E8023DB0000914E
:20996000190008F089FF03B273802A002C3251780020002903D15279012A00D128E28022C5
:20998000A249D20008F06EFF1422F081002106A81BF0A3F9142200210BA81BF09EF94B464B
:2099A0005B7E002B00D140E24422994B9A5C002A00D0D1E343461B8FA3812B002C335B790D
:2099C000013B012B00D846E2002300209A465346E3812B00A0822C331B795BB2012B00D1B5
:2099E000A3E3013300D1ECE12B002C335B79022B00D1EBE12082FFF7E5F809F085F90600F5
:209A0000032007F04BFD8246042007F047FD8046052007F043FD8146082008F099F80028FB
:209A200022D07C4B9E421FDD7B4EB24501DC00F02BFCB04504DD794B994501DC00F060FC3C
:209A400000210E2009F068FC734B994504DD734B984501DC00F05AFC00210D2009F05CFC80
:209A600000210C2009F058FC1A23E05E09F04CF90E22A35E00B2834200D1B2E100211C202A
:209A800009F04AFC09F040FC02280CD06023EB5C002B08D16133EE5C012E01D100F020FC93
:209AA00000226223EA543223EA5C5D4B9C4693009A1863465200A4189B183420195E200002
:209AC000C943AC300026865F8E1B0221585E2100C0437A310027C95F411A18006630314376
:209AE0000026805F2600C043DE360027F65F801B0143180098300026805F2600C043113674
:209B0000FF360027F65F801B01431800CA300026805F2600C0434336FF360027F65F801BB0
:209B200001431800FC300026805F2600C0437536FF360027F65F801B01430426985F2600ED
:209B4000C0437C360027F65F801B01433626985F2600C043AE360027F65F801B0143180022
:209B600068300026805F2600C043E0360027F65F801B014318009A300026805F2600C0439E
:209B80001336FF360027F65F801B01431800CC300026805F2600C0434536FF360027F65F7E
:209BA000801B01431800FE300026805F2600C0437736FF360027F65F801B01430626985FF2
:209BC0002600C0437E360027F65F801B01433826985F2600C043B0360027F65F801B01438E
:209BE00018006A300026805F26001BE0E0600020EC2E00200062002080610020C46100202B
:209C00004C60002098650020B061002000FCFFFF04600020204E000050C300000F270000F5
:209C2000EC2D0020C043E2360027F65F801B014318009C300026805F2600C0431536FF36E3
:209C40000027F65F801B01431800CE300026805F2600C0434736FF360027F65F801B014358
:209C6000581CFF300026805FC64320007930FF300027C05F301A014308201E5E2000F6436A
:209C800080300027C05F301A01433A201E5E2000F643B2300027C05F361A18006C30314371
:209CA0000026865F2000F643E4300027C05F361A18009E3031430026865F2000F643173091
:209CC000FF300027C05F361A1800D03031430026865F2000F6434930FF300027C05F361A91
:209CE00031430800D91CFF310026895F2600C9437B36FF360027F65F891B01433226985FEA
:209D00002600C043AA360027F65F801B6646B25E2600D24378360027F65F921B10431A00E8
:209D200064320026925F2600D243DC360027F65F921B10431A0096320026925F2600D24379
:209D40000F36FF360027F65F921B10431A00C8320026925F2600D2434136FF360027F65F7F
:209D6000FA33921B104300229A5E7334D243FF340023E35ED21A030013430B4302D00120C3
:209D800009F0D0FD18F06CFF0400352009F0B0FA002804D16223EB5C012B00D118E20022AC
:209DA0006323EA5411B03CBC90469946A246AB46F0BD0022002900D161E5002B00DD3EE261
:209DC0005CE53623FB5C012B00D90DE6504611E6327C012A00D136E2002B00DC45E2180005
:209DE000CDE5002B00D149E6D2235B00E356012B00D043E6FEF782FEEC4B984200DC3DE653
:209E00003623FB56002B00D038E601211C2009F083FA37E60622B35E009100220100002081
:209E200008F02AFD03B273809FE5434638229B5E42462C21515E4A460E20125E0020009297
:209E4000002208F019FD2B00A0812C335B79013B012B00D9B8E5786A08F056FF3223EB5CAA
:209E600042469900CB185B00E3181900AA31527883460020095E514306911900783100206D
:209E8000095E0B911900AC310020095E5143079119007A310020095E0C911900AE31002016
:209EA000095E5143089119007C310020095E0D911900B0310020095E5143099119007E31AC
:209EC0000020095E0E911900B2310020095E80334A430A9200229B5E0BA90F9305225B46C4
:209EE00006A808F01DFD0623E25E00B25043801203B219000420994608F0D0FD03B2638232
:209F00009A462423E35C002B00D0A7E20C23E25E5046002108F0A6FC03B29A462B002C3378
:209F20005B78002B00D0E6E10822B35E002B00DC11E23223EB5C42469900CB185B00E31861
:209F400019000F31FF3152780020095E514306911900DC310020095E0B9119001131FF3128
:209F60000020095E514307911900DE310020095E0C9119001331FF310020095E51430891A1
:209F80001900E0310020095E0D9119001531FF310020095E514309911900E2310020095E7B
:209FA0000E9119001731FF310020095EE4334A430A9200229B5E0BA90F933B230522E65C72
:209FC00006A85B4608F0ACFC70430821635E02B253439B121BB299464946052008F05EFD4B
:209FE0000C23E25E00B2002108F03CFC00B2EEE43523FB569946FEF781FD4B4658436C4B8D
:20A0000058439B4608F08AFE6A4B988202201856994643429A46FEF777FD534658435B4663
:20A02000584308F07BFE03B29A464B465246DA825B7E002B00D142E14B460421595E002273
:20A04000002906D04B4606201B5E9B46002B00D062E11E23E15E192008F0EEFC6421E0832F
:20A0600004981AF029FB039B4343180008F0D2FEF16802000F2008F0DFFC4346F0603A2181
:20A08000595E002200290BD064201AF015FBFB69494958431A22A35E58431AF00DFB0200C8
:20A0A0003169102008F0C8FC306100280AD0F168002907D02C23F356012B00D1F9E101338B
:20A0C00000D1BAE10023B3622C239B46AB445B469B78022B01D0FFF717FC384B384E1A6C73
:20A0E0009A46DA6363882380B3893380738933814B461B7E0393002B00D17DE05B465B7988
:20A10000032B01D1FFF703FC09F0FEF82B002C335A79022801D0FFF714FC042A01D1FFF707
:20A1200013FC03225A71FFF70FFC3533FB5C0133DBB2012B00D957E450465BE4322304220F
:20A14000EA547B6A002B01DDFFF78FFB002B6DD13622BB54FFF78CFB1A4A3020185E30218B
:20A16000515E08F011FEA08127E45B46C01A039B494658431AF016FA134B584308F0DAFDD8
:20A18000830018184000F06101D1FFF78FFB52460E4B0A215A4392461AF08EFA010050466F
:20A1A0001AF08AFA0200FFF782FBC046102700008F0200004C600020BB0300009865002027
:20A1C000B0610020B45F002099040000A08601007D331C40542C00D165E163242B5D013371
:20A1E000DBB22B55092B00D8DCE50121352009F093F800232B55D5E50021022008F092FC64
:20A200000021032008F08EFC4B460399598199815B465B79032B01D1FFF779FB5B469B78C4
:20A22000022B01D1FFF784FBFFF771FBFF223623A54CFA541A23E25E002A00DC3EE10122CA
:20A240005242FFF71CFB0821725E002A00DCDCE03223EB5CE31830331B78002B01D1FFF722
:20A260008EFB504200B2FFF78AFB0823F25E3223EB5CE318002A00DCD6E030331B78002BA7
:20A2800001D1FFF77CFBECE700210E2009F044F800210D2009F040F8B04501DCFFF7E0FB06
:20A2A000B14501DCFFF7DCFB884B9A4501DDFFF7D7FB01210C2009F02FF8FFF7D5FB4B46E1
:20A2C0001420185E43469B6A8149584343463A229B5E58431AF0F0F908F088FD02B2B8E6A6
:20A2E000152009F005F8002801D0FFF7D9FB6223EE54FFF7D8FB012B24D0002399466BE66D
:20A3000001210E2009F008F8FFF7A6FB01210D2009F002F8FFF7A4FB4B461420185E8002C9
:20A320001AF0CAF91A22A35E524643435946900205931AF0C1F9059B9C46604408F0FAFC54
:20A3400002B286E62B33EA5C534253414A465B421A40914640E63223EB5C42469900CB18EC
:20A360005B00E31819007331FF3152780020095E5143069119004131FF310020095E0B9140
:20A3800019007531FF310020095E5143079119004331FF310020095E0C9119007731FF3149
:20A3A0000020095E5143089119004531FF310020095E0D9119007931FF310020095E5143F7
:20A3C000099119004731FF310020095E0E9119007B31FF310020095E49334A43FF330A92A9
:20A3E00000229B5E0BA90F933B230522E65C06A85B4608F095FA030073431AB20A21635EDE
:20A4000053439B121BB29946E6E5002B00DDE6E43223EB5CE31835331B78002B01D1FFF72B
:20A42000AEFA2C48FFF7ABFA35331B78002B01D1FFF7A5FA2748FFF7A2FAFA239B009A463F
:20A440004B43010018001AF037F908F05DFC5246002108F007FAB062FFF74DFAF86908F070
:20A4600053FC1D4A002108F0FDF903B2002B00D14CE532200C21625E03922A5C1032520047
:20A48000A2180620105E42463A21525E64215043124A594350431AF00FF9039900B208F0E0
:20A4A00073FC02B234E517F03BF9002800D194E675E4FA239B009A465843C4E7002A01D17F
:20A4C000FFF7DDF9FFF7DAF9006200200F2700001027000000FCFFFFFF7F0000BB030000C2
:20A4E000F0B55F4656464D464446F0B4AB4B99B00620185EA94B404304229B5E5B43C018CE
:20A5000008F02CFBA54B1881FEF75CFB001108F0FBFBA34B02009B46596E202008F08CFAF2
:20A520005B4658669F4B2C241C5F9E4B64432E255D5F9A4B6D4308229B5E641B04939A4BB5
:20A54000A41232229B5E984A63433421525E974962433227CF5F954967433426895F6143F1
:20A560000E00934200DA1300B74200DA3700FA210293019200908900002008F091F95B4662
:20A58000FA21029701965B6E32008900009380463B00002008F084F9824B07002E229B5EA6
:20A5A000994607F05DF8059007F054F8824608F0ABFE022801D101F050F9002C00DC85E08C
:20A5C000049E7B497643701B1AF076F8764B04003821595E744B00253620185E43460293B6
:20A5E000059B002200930195434608F059F96E4B0022D8636D4B3821595E6C4B3620185E3C
:20A6000053460297009301953B0008F049F9674BD863200008F078FB4B465B12834201DA54
:20A6200000F0DAFE5B46D86E5F4B0021DB6B04934346049A9A1A08F015F95B46D8665B4B5D
:20A640000021DB6BFA1A04935B46186F08F00AF95B461867544BDB6B04935B46DB6E049AA1
:20A660009C46524B6244DB6B1600C51804936423501099465843434659101AF01DF84A4BDE
:20A68000791018644B46681058431AF015F8474B1864B04501DD00F091FE44230122424985
:20A6A000CA54AF4201DD00F0F2FE0123012144223E488154002B01D000F0EBFE002C01DBE9
:20A6C00000F0EAFE002244233849CA54354B5A462C21595E6823D152072008F0DFF92F4B37
:20A6E00000B25882188206229B5E40435B43C01A08F034FA294BD8812E4B586A984608F014
:20A7000003FB2D4D83B207932B8A2C4C0A93254BE9895B78070059439A468BB209936B8923
:20A7200004935B462C331B795BB206931A23E05E08F0EAFA224B0600994608229A5E5E23FC
:20A74000EB5A9A4242DD5C23EB5A002B00D0CBE201227C235946CA5401232B7000237D224D
:20A76000AB705B469B5C002B01D101F083F8154B0893154B0593FDF7BBF9059B1B680B9361
:20A78000C01A5823EB5A984202D90023089A13700023059A13715371C0E2C0464C600020A4
:20A7A000EC2E0020C461002004600020B45F002050C30000E06000202061002000620020CD
:20A7C000B0610020E40000206C2F0020002359467C228B5401328B54093A8B54494B0893E7
:20A7E0001B78002B00D197E201237D222B7059460023AB708B54444B05930023059A93714A
:20A800005B462C335B79012B01D100F078FD0123089A13705B46059A2C331B79127E5BB2E8
:20A8200052B29A4201D100F0E2FD2A7805990B760121002A06D15E462C367379012B01D1C3
:20A8400000F049FF314802F0A1F82B6C08216A5E1BB29A4200DB002335272D4EEB80F35DFB
:20A86000002B0CD0059B5B7E002B01D100F0D3FF4B4608229B5E002B01DC00F0E4FF0023E7
:20A88000059A5376D3613522B3545A462C33D35C012B01D000F005FD5A462C325379012BAB
:20A8A00001D100F0CCFC022B01D000F07BFC0E23E25E00239A465142164B30005F7802F048
:20A8C00083F83523F35C002B01D100F093FF059BD869B06343465F465B6A2C37C11A0901A8
:20A8E000300002F085F87B7900205A1E012A01D800F066FCE082062B27D8074A9B00D3582E
:20A900009F46C046E40000206C2F00203461002098650020C46100208466020008F0F4FCA2
:20A92000022818D0E94B5B680493002B01D001F01FFAE74B1B78012B07D0002B05D1FEF7B3
:20A940005FF9002801D001F02BF8012001F06EFF0020FEF7F7F81A23E05E08F0D5F95A462E
:20A960003223D35C00B21A002C325200A2180221525E824200DC94E2E218503215781A0011
:20A9800030325200A2180421525E824200DC58E2E218553216784246526A002A00DA58E209
:20A9A0001821625E002A08DC01D001F0C9F91621625E002A01DC00F05BFD2900002008F085
:20A9C00093F832265B469B5D0020E3187233197808F094F85B469B5DE31850331B78AB428F
:20A9E00001D100F087FD0121072008F063F9072008F04CF9002801D000F061FC1822A35E8F
:20AA0000099343465A6A099B002B01DC00F066FCD31701221343D2225200A354913AFF3AAB
:20AA200000210EA81AF059F91422002113A81AF054F9062006F032FD0600072006F02EFDE1
:20AA40000522050000210CA81AF047F943465B6A15951B0116951793139614960E23E25E7E
:20AA60008A239B00E5180021280001F0ADFF1023E25E96239B00E018002101F0A5FF102303
:20AA8000E25EA2239B00E018002101F09DFF0E23E25EAE239B00E018002101F095FF0E23C4
:20AAA000E25EBA239B00E018002101F08DFF0EAB9A46C8239B00994600270495A144FBB2F8
:20AAC0000693042F01D101F061FA4B46C620102219688000E3191818067808A88018D222FC
:20AAE0009200944663441B783D00C655002B00D168E10223FAB29A434B46586901D101F050
:20AB000077FA08F029F953461860D2235B00E3565A1C00D15EE1012B00D077E16D4B5A190B
:20AB20007023D35C10221E4008AB9B185E55002E00D15BE12C2108AAAB005218D2581439E4
:20AB4000069208AA5218D25807920799069A521A08998C4663445B6853431E1E06DD2023FD
:20AB6000059A5219D15C002900D152E16B0006939522920094465B191B01E31863441B6895
:20AB8000002B02D1002E00DA07E33100049801F02FFF069A2B009446952292006544944668
:20ABA0002D01B1336519FF3365445B002A68E3189A80049B01373033049304239C46E24428
:20ABC000E144052F00D07AE7DB239B00E25E424BE15ED9239B00E05E08F0B6F8DA230500C9
:20ABE0009B00E15E3D4BE05E08F0B6F8E3895D1B3B4BE552238A181ADE239B00E05206F0CB
:20AC000029FD82239B00E05006F02AFD83239B00E050072006F042FC84239B00E0500E2015
:20AC200006F03CFC85239B00E050059B9B6A002B00D13BE39847862330219B00E0500023ED
:20AC400008AA52181370022008F052FB0500052008F04EFB2D2208AB9B181870142008F01A
:20AC600047FB002800D146E32E2208AB9B1818702B2008F03DFB2F2208AB9B181870002D4B
:20AC800000D012E182238E329B00FF32E358A058834200DA60E3143AA1588B4201DA00F0CC
:20ACA00054FC2832A058834201DA00F002FE1432A1588B4201DA01F0A1F88022FC23D2005E
:20ACC0005B00E2520422074BE2544DE34C600020C4610020E87602006A03000066030000C0
:20ACE00076030000020200005B4674229B5C002B01D100F013FCFCF7FBFE5B469B6FC01A3C
:20AD00005C23EB5A984200D922E57C235A46D35C002B00D020E561E5B34B05930622AB5E3A
:20AD200036B2B34200DB68E5AB78013B012B00D963E5059B9B79002B01D101F011F8FCF7C4
:20AD4000D7FE059B9B680B93C01A5A23EB5A984200D855E50123089A13700023AB705B462D
:20AD60002C335B79012B00D051E501232B700023059A0021092013719371938107F0D2FE40
:20AD8000089B1B78002B00D044E56B780222190091430A00012901D101F05BF8022B01D01D
:20ADA00000F022FC079B099A934201D900F01CFC0323AB707C235A46D35C002B01D100F0ED
:20ADC0001FFC27E553461960D2235B00E3565A1C00D0A0E6854B5A197823D35C10221E4048
:20ADE00008AB9B185E55002E00D0A3E6049801F0CDFD2B00B133FF335B00E3189E80059B07
:20AE000000229C4620236544EA54D2E6784B5B5D88E60121D1549322920094466B000693F7
:20AE20005B191B01E31863441B6807931A22A05E07F06AFF079B191A049801F0CFFD069B5A
:20AE400096E6E2184B3216784246526A002A00DBA6E51821625E002A00DA37E300D12DE3A5
:20AE6000E31872331978002007F048FE5B462C331B795BB2012B01D100F082FF31000020E3
:20AE800007F032FE32235A46D35CE31850331B78B34200D0A7E570230720E15A07F00AFF10
:20AEA000A5E5E2184632157869E5FC2300225B00E252504BE25400272D2208AB9B181B78AB
:20AEC000002B23D1E021E032FF324900A2586058904200DD1BE214396158914200DD56E379
:20AEE000EA2149006058904201DD00F0D2FCE933FF33E158914201DD00F072FF8022123358
:20AF0000D200E25204223C4BE25405E0FD2300225B00E252384BE254FD235B00E65E0125F4
:20AF2000BE4201DC3E0000252E2208AB9B181B78002B23D1E221E332FF324900A258605825
:20AF4000904200DDECE114396158914200DD11E3EC2149006058904201DD00F0B2FCED334F
:20AF6000FF33E158914201DD00F01EFF80221033D200E25204220833E25405E0FE230022FE
:20AF80005B00E2520833E254FE235B00E75EB74236DC2F2208AB9B181B783700002B36D132
:20AFA000E421E632FF324900A2586058904200DDDEE114396158914200DDB9E2EE21490031
:20AFC0006058904201DD00F06CFCF133FF33E158914201DD00F0F6FE80220E33D200E252A4
:20AFE0000422064BE25418E06C2F0020E876020068770200020200000302000005020000A0
:20B000002F2208AB9B181B780225002BC8D0FF2300225B00E252DB4BE254FF235B00E65E0C
:20B02000BE4200DD98E0302208AB9B181B783E00002B00D198E0802300229B00E252D24B0D
:20B04000E25480239B00E05EB04200DDA3E0300088268927CD4BB600A053E554BF00E15F65
:20B060000E23E55E07F078FE80212A0000900023C9000020872507F0FFFBAD006053102259
:20B08000A35E9946E15FA05F07F066FE8021009000234A46C900002007F0EEFBBC4FBD4A77
:20B0A000BC4BE0531B89568A00219E1BBA4BBB4838229A5E01F088FCB74B36B238229A5EED
:20B0C0000021B74801F080FC3100B44801F090FCB348310001F08CFCAF4BB04A1B8FD26ABA
:20B0E000AE499A1A12B20A86AD49C96A04915B1AAB491BB20B86AB49615E605F07F030FE35
:20B10000A74B208430229B5EA44A3021525EDE218900615EE05F07F023FE3623414602B22D
:20B120006284CB56002B00D16FE1012B00D169E32023E15E0998494207F094FB00B26083AA
:20B14000994CE378002B00D09DE019B03CBC90469946A246AB46F0BD302208AB9B181B78F0
:20B160000325002B00D066E78622E62192004900A2586058824200DBDBE080228023D200B2
:20B180009B00E2520222804BE25480239B00E05EB04200DC5BE704255AE72021059A52197A
:20B1A0005354F2E45F46002330002C37B36301F0EDFB7B7900205A1E012A01D9FFF79AFBAC
:20B1C0000623EA5E0423E15E58463223C35C1C335B00E3180420185E07F0B6FD0E23E25E2C
:20B1E00000B2002107F03EFB2C235A46D25C7B79012A00D17EE3022B00D17BE301B28A46FF
:20B200003521715C002900D1A8E249460E20095E002900DAA2E25046002800D09EE20E229E
:20B22000A35E009180210022C90007F025FBF16A00B207F091FD7B7900B2FFF75BFB53788A
:20B24000002B00D0D7E04B460E21595E002900DA31E232235A46D25C1300203224335B0075
:20B260005200F318B21806201B5E0420125E009180210020C90007F0FFFA0E23E25E824630
:20B280000021FFF719FB5B462C335B79052B00D05BE723780C2B00D957E7444A9B00D35830
:20B2A0009F465B462C335B79FFF7FDFA862230219200A350012308AA52181370C3E41623C7
:20B2C000E15E002007F0EAFB03B20993238343465A6A099B002B01DDFFF79AFB190000237B
:20B2E000002901D1FFF797FBD3179B1A0122DB171343FFF790FB113007F0FAFFB4E4AB7854
:20B30000042B00D96AE12A4A9B00D3589F468022FD23D2005B00E2520222264BE254FBE5ED
:20B320008022FE23D2005B00E25202220833E2542AE6DC21490061588A4200DAE1E0F021CD
:20B3400049006058824200DBC4E280229200A35200220D4BE25474E68022FC23D2005B0086
:20B36000E2520222144BE254FC235B00E75EA3E58022FF23D2005B00E2520222014BE254CE
:20B380004BE6C0460502000006020000220200001E0200004C600020C4610020046000208E
:20B3A000B45F002076030000FC5F0020A0660200D46602000302000002020000AF4278DDD3
:20B3C0004422DD499B5C8A5C002A62D1002B01D1FFF77CF9FFF772F95B46DB6E5A46E0185C
:20B3E0005B46D8661B6F1B191367FFF71DF92A780021FFF71EFA012B00D1B1E20E23E25E58
:20B40000002300219A46FFF757FA2023E25E0998514207F027FA00B291E6FDF7F1FB0028C1
:20B4200001D1FFF792FAFDF7CDFB002818D1FDF783FB002804D0C14B5B680493002B0FD10C
:20B44000FDF77AFB002801D0FFF77FFAFDF762FB002805D1FDF764FB002801D1FFF775FA1A
:20B460007F2001F0E3F90120FDF76CFBFFF773FA002A01D1FFF7BBFAE31872331978002089
:20B4800007F032FB3100002007F038FBFAE4AC4AD35C002C00DA31E268245A46A94B0121AF
:20B4A000DB8D3E20135307F037FF5B46195FFFF713F94423A04AD35CFFF7F8F81621625EBB
:20B4C000002A00DD24E201D1FFF791FAE31872331978002007F008FB2900002007F00EFB78
:20B4E00032235A46D35CE31850331B78AB4201D0FFF779FA6E230720E15A07F0DBFBFFF73A
:20B5000076FA009280220023D20007F0B5F9802301229B00E0528C4BE25492E5FCF7E8FA01
:20B520005B465A469867742101235354FFF7E3FB009280220023D20007F09EF9FF2301229B
:20B540005B00E052814BE25467E580220093D200002307F091F9FC2301225B00E0527C4BCF
:20B56000E254FC235B00E35E1F1C002B00DA13E23FB2A1E4009280220023D20007F07CF99A
:20B58000FE2301225B00E0520833E254FCE4009280220023D20007F06FF9FD2301225B0063
:20B5A000E0526C4BE254B7E4FCF7A2FA059B5B690493C01A5623EB5A984201D800F06CFCA4
:20B5C0000123AB706B78032B00D0C4E1079A09998A4203D800220599AB704A71089B1B78F0
:20B5E000002B01D0FFF716F97C235A46D35C002B01D0FFF70FF9AB78002B01D1FFF70AF9C9
:20B6000000232B705B461821059A2C331B7951565BB20022994201D0FFF708F90021FFF770
:20B620000AF92B6D059E6B62EB6C00212B6200230920B38107F076FA0622AB5E002B00D1E6
:20B640007EE13379002B01D100F01EFCFCF750FA059B1B690493C01A5423EB5A984202D995
:20B660000123089A13700023059A53710233AB706B7870E15346069E06205E43049B5E4333
:20B68000AB6C36B26B626B6C2B6207F0FFFA002800D0D7E30622AB5E002B00D1BCE30423E5
:20B6A000AB706B78012B99D80123089A13700023AB70FFF7AFF81422A35E00205B42009146
:20B6C0000022254907F0D8F80E23E25E002301009A46FFF7F1F85A462B33D35C002B01D096
:20B6E000FFF7B0F8002901D0FFF7ACF80423EA5E0C23E15E58463223C35C2F009800C31887
:20B700005B00E31878330020185E07F035FB143702000021380001F057F9059B38000C217F
:20B72000595E43465B6AC91A0423F356594301F05FF9FFF78AF8C046046000204C600020FE
:20B74000B45F0020C46100200602000005020000020200000302000000FCFFFF0020002A15
:20B7600001D0FFF7C7F85D462C356A78002A1FD14B460E229A5E002A03DA5346002B00D1EE
:20B78000AAE35D460E21635E042680212C35AE57C90000920020002207F06EF801B2504615
:20B7A00007F0DAFAB6B270436B7900B2FFF7A2F8012A01D0FFF79EF85246002A00D180E3FF
:20B7C0000422AA56012A01D100F018FC013201D0FFF790F80E23E25E0023E05E514207F064
:20B7E00041F853460100584207F0CEFA6B7900B2FFF780F851460120794307F04FF9B06353
:20B80000FFF768F82021635E099851421A0007F029F800B293E44146059B496AD9611A20F3
:20B82000215E300001F0DAF80123059A5376F35D002B01D1FFF723F84B4608229B5E002BCD
:20B8400001DDFFF71CF85B462C331B795BB2012B01D0FFF714F8FFF71FF8FDF767F90028D7
:20B8600001D0FEF7AAFEE34B5A4658826823D15EFEF732FFFCF73CF9DF4B7D2218600593D1
:20B8800001215B469954DD4B7C3A08931A70FEF772FFFD225200A3520022D94BE254FFF7B7
:20B8A0003BFBFF225200A3520022D64BE254FFF7B4FBFC2300225B00E552D34BE254FFF7AF
:20B8C000FAFAFE225200A352812300229B00E254FFF75AFBFA235B00E1588A4200DA55E29D
:20B8E00080228023D2009B00E2520422C74BE254FFF7A7FB2C22B05EFEF7FCFF0021442289
:20B90000C3488154002B01D0FEF7DCFEFEF7DEFE3100002007F0E8F832255B465B5D0020B3
:20B92000E3187233197807F0E9F85B465B5DE31850331B78B34201D0FFF755F8FFF7ABFAF0
:20B94000059E7379002B00D02EE601337371FCF7CFF870616B780222934300D1A4E63DE64B
:20B960005A463223D35CF06B1A002033243252005B00F318B2180621525E0421595E06F05A
:20B9800071FF1423E15E3A23E35C4942594382460E23E25EFEF790FF00273FB2FFF78CFAAD
:20B9A000FDF710F9002801D1FEF7CFFF58E56378002B00D1CBE2012B00D1A7E2022B01D088
:20B9C000FFF7C3FB12F008FF002801D100F025FC0023637003332370FFF7B7FB6378002B32
:20B9E00000D05BE20133637001230020237112F01BFD02236370FFF7A8FB6378002B00D1D9
:20BA0000B9E2012B00D10FE3022B00D125E3032B01D0FFF79AFB059A3133D55C002D00D1DA
:20BA20006DE33523D35C012B00D155E300250120657000F0FBFE5B46E5702C335B79062B9C
:20BA400001D100F015FC5B462C339A78022A01D100F001FC5B79032B00D137E35B46002266
:20BA60002C335A710D232370FFF76FFB63784120002B00D1FAE1012B00D13FE2022B00D14A
:20BA8000FEE1032B01D0FFF760FB15F049FE03002D25581E8341059A535512F09DFE002890
:20BAA00000D142E22C23059AD35C002B00D1F3E3535D002B00D0E8E363700B332370FFF792
:20BAC00044FB63780920002B00D1CFE1012B00D114E2022B00D1D3E1032B01D0FFF735FBAD
:20BAE00015F01EFE03002D25581E8341059A535512F072FE002800D117E22C23059AD35CCE
:20BB0000002B00D1C8E3535D002B00D0BDE363700A332370FFF719FB63780520002B00D18A
:20BB2000A4E1012B00D1E9E1022B00D1A8E1032B01D0FFF70AFB15F0F3FD03002D25581E78
:20BB40008341059A535512F047FE002800D1ECE12C23059AD35C002B00D19DE3535D002B59
:20BB600000D092E3637007232370FFF7EEFA6578002D00D1D1E1012D00D111E3022D00D192
:20BB800044E3032D00D13AE3042D00D1C9E2052D00D175E2062D01D0FFF7D7FA12F01CFE72
:20BBA000002800D1C4E2002325706370FFF7CDFA6378002B00D1B0E1012B00D112E3022B17
:20BBC00000D108E3032B00D1FEE2042B00D1F4E2052B00D154E2062B01D0FFF7B6FA12F013
:20BBE000FBFD002800D1C9E20023637005332370FFF7ABFA4C6000206C2F0020E4000020C2
:20BC000003020000050200000202000006020000046000206378002B00D1A2E1012B00D131
:20BC200074E1022B01D0FFF790FA12F0D5FD002800D136E20023637004332370FFF785FA17
:20BC400063781120002B00D110E1012B00D155E1022B00D114E1032B01D0FFF776FA15F05B
:20BC60005FFD03002D25581E8341059A535512F0B3FD002800D158E12C23059AD35C002B66
:20BC800000D109E3535D002B00D0FEE2637009332370FFF75AFA6378002B00D1E5E0012BA8
:20BCA00000D12BE1022B00D1EAE0032B01D0FFF74CFA15F035FD03002D25581E8341059A3F
:20BCC000535512F089FD002800D12EE12C23059AD35C002B00D1DFE2535D002B00D0D4E2F1
:20BCE000637008332370FFF730FA63782120002B00D1BBE0012B00D100E1022B00D1BFE055
:20BD0000032B01D0FFF721FA15F00AFD03002D25581E8341059A535512F05EFD002800D1DB
:20BD200003E12C23059AD35C002B00D1B4E2535D002B00D0A9E263700C332370FFF705FAA0
:20BD4000E31872331978002006F0CEFE5B462C331B795BB2013301D0FFF794FBFFF7BCFBF8
:20BD6000FBF7C6FE0123059A90609371FEF7E7FFFCF746FF002801D0FFF772FBFEF7E5FD10
:20BD80002900002006F0B0FEFFF7AAFB80230092DB00002206F070FD802303229B00E052F1
:20BDA000EC4BE254FFF74DF980230092DB00002206F062FDFE2303225B00E0520833E2540F
:20BDC000FFF7E2F880230092DB00002206F054FDFF2303225B00E052DF4BE254FFF71DF9DA
:20BDE00080230092DB00002206F046FDFD2303225B00E052D94BE254FFF78EF800938023FA
:20BE00000022DB0006F038FDFC2303225B00E052D34BE254FFF7A5FB03233000AB7006F0D8
:20BE200073FFBAB203041B0C9A4200DC39E45B4604212C335956099B09204B43190006F0E3
:20BE400071FE2EE43100092006F028FE059B988120E451460A984143079889B2884201D2FA
:20BE6000FEF79CFFAA70FEF7A5FF032012F0F4FA8020800000F02CFD01236370FFF765F9E8
:20BE800003236370FFF761F9FBF732FE0123059A10611371FFF7DAFB6B785CE5012B00D193
:20BEA000A2E5022B00D1B8E0032B00D1F2E0042B01D0FFF74AF90023637002332370FFF7A7
:20BEC00044F90E23E25E0023E05E514206F0CAFC6B7900B2FEF70EFD414636230020CE564A
:20BEE0001421635E00929F49002206F0C5FC7642B6B270436B7900B2FEF7FCFC15F010FC92
:20BF000003002C22581E834105998B54012012F0A3FA02236370FFF718F9FA20400000F010
:20BF20006FFC01236370FFF710F93A30012107F0F3F9082005F00CFE002800D081E100238D
:20BF400023710E3323700C3BA370FFF7FEF8552012F082FA844800F0BBFC01236370FFF7E0
:20BF6000F4F82B2012F078FACD2000F0B1FC01236370FFF7EAF8012012F04EFCFBF7B8FDA9
:20BF8000059B186301236370FFF7DFF85A463223D35C764AE0188218127808A90A751A0078
:20BFA000C132FF325200A2180421515E5A462C321279089D52B26A616D4DAC4660440078B8
:20BFC00000280BD0C533FF335B00E3180620185E013200D167E106F0D7FE0100654B042551
:20BFE000587808AB4143090112911E7DFEF78DFD06F0CAFE53461860FEF787FD0E23E25EBA
:20C000000023E05E514206F02DFC0100504606F0A3FE6B7900B2FEF76DFC012012F01CFAB2
:20C0200003236370FFF791F8FBF762FD059B1B6B0493C01A1E2801D8FFF787F812F0E0FB2F
:20C040003423059DE854002012F0E6FBFBF750FD022328636370FFF778F8FBF749FD059BA8
:20C060001B6B0493C01A1E2801D8FFF76EF812F0C7FB3523059AD054323B6370FFF765F8DC
:20C08000012012F0E9F93C4800F0BAFB06236370FFF75BF8012012F0C7F904236370FFF75A
:20C0A00054F83A30012107F037F9082005F050FD002800D0D7E0002012F0B6F900232371E0
:20C0C0000E3323700A3BA370FFF73FF807F01CF9002800D1C2E4C5E401213A2007F01CF92B
:20C0E00001212E2007F018F9002012F09DF9002323710E332370073BA370FFF726F80121FA
:20C100003A2007F009F90121302007F005F9002012F08AF90E232370073B2571A370FFF71B
:20C1200014F8452012F098F905236370FFF70DF83A30012107F0F0F8082005F009FD00284F
:20C1400000D09DE0002323710E332370083BA370FEF7FBFF060200000502000003020000AE
:20C160000202000000FCFFFF330300007A0300007F030000C4610020102700003A30012184
:20C1800007F0CAF8082005F0E3FC002800D08EE0002323710E332370093BA370FEF7D5FFD9
:20C1A000052000F0ADFB002000F0B8FB002000F099FB02236370FEF7C8FF512012F04CF9EF
:20C1C00005236370FEF7C1FF532012F045F904236370FEF7BAFF512012F03EF903236370B1
:20C1E000FEF7B3FF052000F07DFB002000F096FB002000F085FB02236370FEF7A6FF4D20DB
:20C2000012F02AF904236370FEF79FFF452012F023F903236370FEF798FF3A30012107F0E1
:20C220007BF8082005F094FC00280FD1002012F0FBF8002323710E3323700B3BA370FEF7E8
:20C2400084FF0121162007F067F878E60121162007F062F8EAE705F02DFA002801D0FFF7CA
:20C26000FDFBFFF7FFFB0121162007F055F822E705F020FA002801D0FFF7E5FBFFF7F2FB70
:20C280000121162007F048F85CE701213A2007F043F801213620D6E701213A2007F03CF842
:20C2A00001213820CFE706F057FD010096E60121162007F031F86BE7F8B5164B2C335B797C
:20C2C000032B20D023D3042B1CD13622124B186C9E6BDD6B9C5C00F035FB0700300000F065
:20C2E00031FB0600280000F02DFB0500380012F0DBF8300012F0DCF8280012F0DDF8200095
:20C3000000F094FAF8BD06F0FFFF0228FAD0FCF737FAF7E7EC2E00206C2F0020012805D805
:20C3200062220121024B9854023A99547047C046EC2E00206223014AD05C7047EC2E002011
:20C340000023042804D8034BCC30800018184368180070470062002004280CD80300064A59
:20C36000CC339B00D3185960D2239B009C460123101860440370704700620020042905D867
:20C38000C131FF31024B4900591888807047C046006200200023072804D8034B04308000FD
:20C3A0001818436818007047E06000200A4B2C339B78012B00D9704780238AB2DB009A425A
:20C3C000F9D8002804D00128F5D1044B1981F2E7024B1980EFE7C046EC2E0020B0610020B2
:20C3E000014B2C3358797047EC2E002070B50400062811D8174D2B002C335B79062B1DD0B0
:20C400002E002C36B378022B13D07379032C0BD0032B02D02C356C7170BD042CFAD006F000
:20C4200073FF0028F6D0F7E7042B0CD0032BF1D1F5E705F03FF90028ECD1EDE705F03AF9D9
:20C440000028DDD1E8E706F05FFF0128E4D97379ECE7C046EC2E002010B5104C23002C335B
:20C460005A79042A14D0032200205A71FCF76AFB002000F02DFA6223E35C002B09D05520FB
:20C4800000F0D4F90023064A5383064AD380938010BD012000F0CAF9F4E7C046EC2E002024
:20C4A000006200204C600020004870470062002010B5002805D0E62201009200014818F0FF
:20C4C000EEFB10BD00620020014B1A20185E704700620020014B2020185E704700620020B4
:20C4E000014B2220185E704700620020014B2C3398787047EC2E002030B57F2811D8094D88
:20C5000084002C59A746FA24A400A14209D8A24207D8A34205D83625034C60552164A26331
:20C52000E36330BDE86602006C2F0020014B58817047C0464C600020014B98817047C046ED
:20C540004C600020054B2C339A78012A00D97047421CD2B2022AFAD81871F8E7EC2E002011
:20C56000034B2C339B78012B01D8024B18807047EC2E002000620020FD23421C1A4201D1F2
:20C58000014B98707047C0464C600020014B18767047C0464C600020014B58707047C0468A
:20C5A0004C600020014B18687047C04680610020014B186A7047C046806100200300002076
:20C5C000042B05D8034A04489446C318634418787047C0460202000000620020014B58786B
:20C5E0007047C046C46100208823024A9B00D05E7047C04600620020014B024AD05C7047BF
:20C600002202000000620020014B18787047C046C46100200023042803D8C830024B8000A7
:20C62000C35818007047C046006200200023042804D8034B6E308000181843681800704747
:20C64000006200202C23014AD056704780610020014B586B7047C046C4610020014B06205D
:20C66000185E704720610020014B58707047C046206100203523014AD0567047E06000209A
:20C68000014B18707047C046445F0020014B18787047C046445F00204423024AD05C433B8D
:20C6A0005840704704600020014B0820185E70474C600020064B10B5586A06F025FB002329
:20C6C00002006321C00F91425841C0B210BDC046E0600020014B18787047C046FC5F0020E0
:20C6E00070B511F0BDFE11F0BFFE11F0C1FE11F0AFFE012803D012F00FF9051E09D0224CBD
:20C700002378002B13D0A0684002800A11F0D8FE70BD012011F0A0FE002011F085FE1A4CCE
:20C720000120257011F098FE2378002BEBD161680A2006F0CDFA002817D1E1680B2006F000
:20C74000C7FA0028DFD0FA21E36889005800C018000117F027FF206111F08EFE206911F05C
:20C760008FFE206911F090FECDE763680748590017F018FFA06011F08BFEA06811F08CFEB2
:20C78000A06811F08DFED8E7B42F0020006CDC0210B5194C2378002B00D010BD61680A2079
:20C7A00006F096FA002817D1E1680B2006F090FA0028F2D0FA21E36889005800C0180001E5
:20C7C00017F0F0FE206111F057FE206911F058FE206911F059FEE0E763680848590017F08A
:20C7E000E1FEA06011F054FEA06811F055FEA06811F056FED8E7C046B42F0020006CDC023C
:20C8000010B5084C41006060074817F0CBFEA06011F03EFEA06811F03FFEA06811F040FE15
:20C8200010BDC046B42F0020006CDC0270B5040011F00EFE844203D012F06EF8051E00D0AE
:20C8400070BD012011F008FE2B2C15D024D9552C12D00123144D01202B7011F0E5FD286932
:20C8600011F00AFE286911F00BFE286911F00CFE200011F0F1FDE3E701220B4B01201A707B
:20C8800011F0D2FD002011F0F7FD002011F0F8FD002011F0F9FDEBE7012CDAD8002011F0B4
:20C8A000C3FD014B1D70E3E7B42F0020014B98687047C046B42F0020014B58687047C0463D
:20C8C000B42F0020014B18697047C046B42F0020034B10B59B685843800A11F0F1FD10BDD1
:20C8E000B42F0020054B10B59B6843439C0A200016F02EFA200016F033FA10BDB42F002080
:20C90000054B10B59B6843439C0A200016F05CF9200016F061F910BDB42F0020054B10B5F3
